:020000040800F2
:1000000000000220956E0008594400085D44000875
:1000100061440008654400086944000800000000CD
:100020000000000000000000000000006D44000817
:10003000714400080000000075440008794400087D
:10004000E56E0008E56E0008E56E0008E56E000844
:10005000E56E0008E56E0008E56E0008E56E000834
:10006000E56E0008E56E0008E56E0008E56E000824
:10007000E56E0008E56E0008E56E0008E56E000814
:10008000E56E0008E56E0008E56E0008E56E000804
:10009000E56E0008E56E0008E56E0008E56E0008F4
:1000A000E56E0008E56E0008E56E0008E56E0008E4
:1000B000E56E0008E56E0008E56E0008E56E0008D4
:1000C000E56E00087D44000889440008E56E0008DC
:1000D000E56E000895440008A1440008AD440008FE
:1000E000E56E0008E56E0008E56E0008E56E0008A4
:1000F000E56E0008E56E0008E56E0008E56E000894
:10010000E56E0008E56E0008E56E0008E56E000883
:10011000E56E0008E56E0008B9440008C544000813
:10012000E56E0008E56E0008E56E0008E56E000863
:10013000E56E00080000000000000000E56E000809
:10014000E56E0008E56E0008E56E0008D144000881
:10015000E56E0008E56E0008E56E0008DD44000865
:10016000E56E0008E56E0008E56E0008E56E000823
:10017000E56E0008E56E00080000000000000000C9
:08018000E56E0008E56E0008C1
:1001880010B5054C237833B9044B13B10448AFF3C9
:1001980000800123237010BDB0050020000000007E
:1001A8001879000808B5034B1BB103490348AFF39E
:1001B800008008BD00000000B40500201879000880
:1001C80053B94AB9002908BF00281CBF4FF0FF31B6
:1001D8004FF0FF3000F072B9ADF1080C6DE904CEB4
:1001E80000F006F8DDF804E0DDE9022304B070470A
:1001F8002DE9F047089E04468846002B4BD18A42D9
:10020800154667D9B2FA82F24AB1C2F1200701FA5B
:1002180002F320FA07F7954047EA030894404FEAAB
:10022800154E230CB8FBFEF71FFA85FC0EFB17884A
:1002380043EA084307FB0CF1994209D9EB1807F187
:10024800FF3080F01B81994240F21881023F2B4415
:100258005B1AA4B2B3FBFEF00EFB103344EA03446E
:1002680000FB0CFCA44509D92C1900F1FF3380F0E0
:100278000781A44540F2048102382C4440EA074033
:10028800A4EB0C0400271EB1D4400023C6E90043A8
:100298003946BDE8F0878B4209D9002E00F0EB8083
:1002A8000027C6E9000138463946BDE8F087B3FAA9
:1002B80083F7002F47D18B4202D3824200F2FA80A3
:1002C800841A61EB030301209846002EE0D0C6E9AA
:1002D8000048DDE702B9FFDEB2FA82F2002A40F0F8
:1002E8008F80491B4FEA154E1FFA85F80127B1FB8D
:1002F800FEFC230C0EFB1C1143EA014308FB0CF126
:10030800994207D9EB180CF1FF3002D2994200F25A
:10031800CD808446591AA3B2B1FBFEF00EFB10142F
:1003280043EA044408FB00F8A04507D92C1900F15A
:10033800FF3302D2A04500F2B6801846A4EB0804A9
:1003480040EA0C409FE7C7F1200CBB4022FA0CFEA4
:100358004EEA030E01FA07F420FA0CF521FA0CF321
:100368004FEA1E482543B3FBF8F92C0C08FB193358
:100378001FFA8EFA44EA034309FB0AF49C4202FA84
:1003880007F200FA07F10BD91EEB030309F1FF305E
:1003980080F087809C4240F28480A9F1020973446E
:1003A8001B1BADB2B3FBF8F008FB103345EA03445E
:1003B80000FB0AFAA24508D91EEB040400F1FF333A
:1003C8006BD2A24569D90238744440EA0940A0FBBF
:1003D8000289A4EB0A044C45C2464B4654D351D07B
:1003E800002E69D0B1EB0A0564EB030404FA0CFC97
:1003F800FD40FC404CEA0505C6E90054002747E7E4
:10040800C2F1200320FA03F7954001FA02F021FA1D
:1004180003F34FEA154E3843010CB3FBFEF71FFAFE
:1004280085F80EFB173341EA034107FB08F38B42BB
:1004380004FA02F407D9691807F1FF3C2FD28B425E
:100448002DD9023F2944CB1A81B2B3FBFEF00EFB33
:10045800103341EA034100FB08F38B4207D96918BE
:1004680000F1FF3C17D28B4215D902382944C91A2A
:1004780040EA07473BE73746304609E70746E7E6DD
:100488001846FBE64145ABD2B8EB020A69EB0E020F
:1004980001381346A4E76046E9E7184695E767463A
:1004A800D1E781467CE702382C4447E7ACF1020CDF
:1004B8002B442FE7384608E73746E9E6704700BF80
:1004C80070B50E4B0E4D1B682A7806464FF47A70AD
:1004D800B0FBF2F0B3FBF0F000F0BCF808B90F2E57
:1004E80001D9012070BD0446024631464FF0FF3065
:1004F80000F058F86E60204670BD00BF0C00002068
:100508000400002008B50B4B1A6842F400721A6008
:100518001A6842F480621A601A6842F480721A609B
:10052800032000F02DF80020FFF7CAFF03F030FE8B
:10053800002008BD003C0240034A044B11681B78A8
:100548000B441360704700BF141E002004000020F5
:10055800014B1868704700BF141E002038B50446C8
:10056800FFF7F6FF631C054602D0044B1B781C44BA
:10057800FFF7EEFF401BA042FAD338BD040000206D
:10058800074AD3684FF6FF010B40000243F0BF63F0
:1005980000F4E06043F400330343D360704700BFC6
:1005A80000ED00E0184BDB68C3F3022330B4C3F15D
:1005B8000705042D03F1040428BF0425062C19D9C6
:1005C800033B4FF0FF349C4022EA04044FF0FF3213
:1005D800AA4021EA020101FA03F22243120100288B
:1005E800D2B20ADB00F1604000F5614080F80023D8
:1005F80030BC704700242346E8E7044B00F00F00A6
:1006080003441A7630BC704700ED00E0FCEC00E0D3
:10061800002807DB00F01F0101234009024A8B4034
:1006280042F82030704700BF00E100E000280DDBF1
:10063800430920330122064900F01F0002FA00F0A6
:1006480041F82300BFF34F8FBFF36F8F704700BF90
:1006580000E100E00138B0F1807F0ED2084B10B401
:10066800084C5860F02084F8230000220721104627
:100678009A6019605DF8044B70470120704700BF0D
:1006880010E000E000ED00E090F83530022B03D0D8
:1006980080234365012070470268052380F83530C0
:1006A800136823F0010313600020704790F83500A9
:1006B800704700BF2DE9F04FD1F80080DFF8F4E172
:1006C80083B0002403E00134102C00F08C80012357
:1006D800A34008EA03029342F5D1D1E9016526F067
:1006E80010094FEA440C032309F1FF3703FA0CF30E
:1006F800012F6FEA030305FA0CF577D9C7681F4085
:100708003D43C560076806F003051F4005FA0CF372
:100718003B430360F300D6D55F4D002301936B6C18
:1007280043F480436B646D6C24F0030305F4804547
:1007380003F18043019503F59C3304F003054FEA68
:100748008509564D019FD3F808C00F2707FA09F706
:10075800A8422CEA07071FD005F58065A84276D085
:100768004F4DA84279D04F4DA8427CD04E4DA8425B
:100778007FD04E4DA84200F082804D4DA84200F037
:100788008480DFF834C160450CBF4FF0070C4FF090
:10079800080C0CFA09F52F439F60DEF80030D543AA
:1007A800F70354BF2B401343CEF80030DEF8043073
:1007B800B70354BF2B401343CEF80430DEF808309B
:1007C800F70254BF2B401343CEF80830DEF80C3044
:1007D800B60204F1010454BF2B401343102CCEF889
:1007E8000C307FF474AF03B0BDE8F08F876807EA78
:1007F800030ACF6807FA0CF747EA0A078760D0F8B8
:1008080004A0C6F300172AEA020AA74047EA0A0723
:100818004760C7681F403D43B9F1020FC5607FF4C8
:1008280071AF4FEAD40900EB890904F00707D9F83A
:100838002050BF004FF00F0B0BFA07FB25EA0B0AFD
:100848000D69BD4045EA0A05C9F820505AE74FF03E
:10085800010C0CFA09F52F439EE74FF0020C0CFA35
:1008680009F52F4398E74FF0030C0CFA09F52F43CD
:1008780092E74FF0040C0CFA09F52F438CE74FF080
:10088800050C0CFA09F52F4386E74FF0060C0CFA15
:1008980009F52F4380E700BF0038024000000240FE
:1008A80000080240000C0240001002400014024000
:1008B80000180240003C0140001C02402DE9F04FA6
:1008C8000023DFF83C81DFF83CE1DFF83C91DFF8FA
:1008D8003CA102E00133102B6ED0012404FA03F589
:1008E80005EA0106B542F5D123F0030707F1804771
:1008F80007F59C3703F00302D7F808B092004FF0D1
:100908000F0C0CFA02FC40450CEA0B0B16D04845BC
:1009180011D0504552D0354CA04253D0344CA0424F
:1009280054D0344CA04255D0334CA04256D0334C0E
:10093800A04257D0082404FA02F200E000229345AE
:1009480018D1DEF80020F6433240CEF80020DEF859
:1009580004203240CEF80420DEF808203240CEF8D9
:100968000820DEF80C201640CEF80C60BA6822EA9F
:100978000C02BA605C000322A2400468D243DE087D
:10098800144000EB8606046003F00704376AA400ED
:100998004FF00F0C0CFA04F427EA04043462C4681C
:1009A8001440C460446824EA05054560846801333E
:1009B8002240102B826090D1BDE8F08F022404FA07
:1009C80002F2BCE7032404FA02F2B8E7042404FAAA
:1009D80002F2B4E7052404FA02F2B0E7062404FAA6
:1009E80002F2ACE7072404FA02F2A8E7000C02407E
:1009F800001002400014024000180240001C02408F
:100A080000000240003C014000040240000802408F
:100A18000369194214BF01200020704702B9090474
:100A280081617047436931EA030308BF09048161A2
:100A3800704700BF002800F09F80F8B590F83D305F
:100A4800044603F0FF02002B00F08F802368242265
:100A580084F83D201A6822F001021A601A6842F4EC
:100A680000421A601A6822F400421A6001F072FF0C
:100A780061684B4B99424BD84A4B98427AD92268C5
:100A8800494B5568A3FB00639B0C25F03F051D43AC
:100A98005560156A013325F03F052B431362D5696C
:100AA8004900431EB3FBF1F30133C3F30B0325F4F1
:100AB8004F45042B38BF042325F0FF052B43D36192
:100AC800D4E907351068216920F0C0002B4303439F
:100AD80013609068E568636920F4034020F0FF0024
:100AE800294301439160D168A06921F0FF010343C4
:100AF8000B43D3601168002341F0010120251160E8
:100B08001846236484F83D50236384F83E30F8BDCA
:100B1800264B98422ED92268234B5668244FA3FBB4
:100B280000539D0C26F03F062E434FF496735660F3
:100B380003FB05F3A7FB0353156AA6689B0925F079
:100B48003F0501332B431362D56925F44F4501381E
:100B580025F0FF0596B901EB4101B0FBF1F001303A
:100B6800C0F30B00C0B90123A8E780F83C2003F0CC
:100B78002BFB6BE70120F8BD0120704701EB8101D9
:100B880001EB8101B0FBF1F00130C0F30B0000284C
:100B9800E9D040F4404391E740F400438EE700BFBA
:100BA800A08601007F841E0083DE1B43FF083D00F2
:100BB800D34D6210B0B10268242310B580F83D30DF
:100BC800136823F001030446136003F047FB002376
:100BD800236484F83C3084F83D301846236384F855
:100BE8003E3010BD01207047704700BF704700BFFE
:100BF800704700BF704700BF704700BF90F83D20A6
:100C0800016D38B5034659B9C26C0168012A826C76
:100C18002AD0C2F307220A61026D0132026538BD8B
:100C2800016D012926D0016D0229F8D1D2B2222AFC
:100C38002CD0418D89B229BB418D89B20029EED1D2
:100C4800212AECD10268546824F4E06454601468E2
:100C5800202544F400741460016380F83D5080F846
:100C68003E10FFF7C9FF38BDD2B20A61026D0232E9
:100C7800026538BD826C0168D2B20A61026D013228
:100C8800026538BD212A07D05B8D38BD026813681C
:100C980043F48073136038BD416A026811F8010B90
:100CA80010615A8D5962013A92B25A8538BD00BF17
:100CB800704700BF70B53B4B3B4C1B68816B82B0E3
:100CC800DB08A4FB0323002201921B0A91F83D00D4
:100CD8000A6803EB8303C3EBC3030193C0B205E0C7
:100CE800019B013B019313689B0506D5019B002BD3
:100CF800F6D10B6C43F020030B64D1E90D434CB3E0
:100D08000025E563FBB11668DD6326F4806616608E
:100D18004D85256500241C65136823F001031360C5
:100D280091F83D30602B2AD000F02800282819D0EF
:100D38002022002381F83D2081F83E30084603F048
:100D480001FF02B070BD156825F4806515604B85FC
:100D58002365E1E7FBB11568DC6325F48065156060
:100D68004C85D7E7136843F0010313601368002428
:100D780043F4806313600C6381F83D00DEE70023D1
:100D8800202281F83D20084681F83E300B6403F0AC
:100D9800F9FE02B070BD146824F4806414604B85B9
:100DA800BAE700BF0C00002089B5F81470B50368D5
:100DB80004465868E56A94F83E2094F83D10D2B28B
:100DC800102A8CB020D0402A1ED0226CC9B2002A2A
:100DD80000F0BB805A690026C2F34005002D78D088
:100DE80085057BD5226C02B19E6994F83D2002F0FE
:100DF8002802282A00F015826FF0020100225961AA
:100E080084F83C200CB070BD9E69596911F0010F3F
:100E180039D1B5F52A0FF5D0B5F12A4FF2D00D0723
:100E280040F19980850500F1ED81760740F1008158
:100E38005D682D05E6D4C1F38005090640F1A1815E
:100E4800460540F19E81002D40F09E8194F83D209A
:100E5800208D94F83E10E56AD2B2C9B2002840F05D
:100E68007883212A00F028844029CBD1222AC9D1AD
:100E7800628D92B2002A00F0408494F83E20402A05
:100E880040F0B68086E1850562D5E26AB2F52A0FA0
:100E980000F0E281E26AB2F12A4F04BF0822E2625E
:100EA80094F83E20402A00F0D0812269B2F5804FA4
:100EB80000F09081226D002A00F0D181226D012A74
:100EC800A0D1626CD21102F0060242F0F1021A615E
:100ED80098E7D60602D5860500F1D88001F0F7011B
:100EE8002129C2F380054ED0510640F18B8042057E
:100EF80040F18880002D40F0888094F83D10628D84
:100F080092B2C9B2002A3FF47DAF626A1B691370BE
:100F1800638D626A013B9BB26385638D01329BB22C
:100F28006262002B7FF46EAF2A297FF46BAF2268D0
:100F38005368222523F480632821536020462563C3
:100F480084F83D1003F0BEFD5CE79E695A6943E7EB
:100F58000D073FF56AAF8D077FF567AF85057FF50C
:100F680064AF94F83E20E06A256B94F83D1022297E
:100F7800D2B200F00982002209925A6909929B694B
:100F88000993099B3EE7120627D5460525D53DBBA3
:100F980094F83D00628D92B2C0B2002A3FF432AF9D
:100FA800656A15F8012B1A61628D6562013A92B281
:100FB8006285628D92B2002A7FF424AF29287FF4DB
:100FC80021AF5A68282522F480625A60204621639E
:100FD80084F83D5003F096FD14E7002D3FF412AF5E
:100FE80080057FF50FAF628D92B2002A3FF40AAFF9
:100FF800626A12F8011B1961638D6262013B9BB240
:101008006385FFE6002D3FF4FDAE86057FF5FAAE59
:10101800628D92B2002A3FF4F5AE626A1B691370C2
:10102800638D626A013B9BB2013263856262E9E6C5
:101038005A6816053FF5E6AE4D06C1F3800240F149
:10104800AF80410540F1AC80002A40F0AC8094F8B4
:101058003D1022297FF4D6AE618D89B2032940F272
:10106800EA82626A1B691370638D626A013B9BB2F4
:101078006385638D9BB20132032B62627FF4C2AE3B
:101088002268536823F480635360BBE694F83D10EC
:101098005A6822F4E0625A600B955A690B921A68F2
:1010A80042F001021A600B9A1A6822F480621A60F0
:1010B8005A68CDB2110521D505F0F702222A00F0B1
:1010C8003E81606B0268526892B26285628D92B20C
:1010D8001AB1226C42F0040222645A6822F40062B7
:1010E8005A60FFF7E3FA012808D0606BA44B036548
:1010F800FFF7CAFA10B1606B036D9847638D9BB216
:1011080013B323685A6952070AD5626A1B691370B8
:10111800628D616A2368013A92B201316285616227
:101128005A69560609D5626A1B691370638D626A2B
:10113800013B9BB2013263856262638D9BB21BB136
:10114800236C43F004032364236C002B40F0958048
:101158002A2D00F0598194F83D30282B00F0DD80CD
:10116800236B222B02D0222D7FF44CAE00232022A9
:101178002363204684F83D2084F83E3003F0A2FC27
:1011880040E6002D3FF43EAE81057FF53BAE102AC8
:1011980000F0428120460CB0BDE87040FFF72EBD3C
:1011A800002A3FF42FAE86057FF52CAEE06A628DEB
:1011B800616A92B2042A00F08281628D92B2032A97
:1011C80000F08481628D92B2022A00F0FC811B69D2
:1011D8000B7025E794F83D20212A626C16BF42F077
:1011E800010202F0FE02D2B21A61626B002A00F01C
:1011F800E880D26B002A00F0E4805A6842F400626A
:101208005A60FFE5626C616BD2B21A61002900F086
:101218009180CA6B002AF0D1A26BD26B002AECD164
:10122800F0E55A6822F480625A606FEA9601330644
:101238004FF0000301F0010154BFA289228B84F80A
:101248003C302046FFF7D4FCDCE5226D7AB9626CAD
:1012580002F0FE021A61D5E50122E26220E6626C24
:10126800D21102F0060242F0F0021A61CAE5626C7D
:1012780042F00102D2B21A61C4E594F83D1094F824
:101288003E202368D2B2102AC9B200F09F80402ABB
:1012980000F09C8001F02802282A00F0E3805A68B8
:1012A800100507D4602905D02021002284F83D10BC
:1012B80084F83E20002222635A6812F4006200F08B
:1012C80091805A68606B22F400625A6090F8353059
:1012D800012B00F00A812A4B0365FFF7D5F950B1BD
:1012E8002268606B1368016D23F0010320251360E9
:1012F80084F83D508847236C180704D02268536847
:1013080023F4E063536094F83D30226C5107DBB25C
:101318007FF578AD282B7FF475AD1A4BE362202258
:1013280000232363204684F83D2084F83E30FFF7ED
:1013380061FC67E5A26B002A7FF46BAF62E5A06BE6
:101348000268526892B26285628D92B21AB1226CBA
:1013580042F0040222645A6822F400625A60FFF7DD
:10136800A5F901283FF4CAAEA06B054B0365FFF74A
:101378008BF900283FF4C2AEA06B036D9847BDE619
:10138800BD0C00080000FFFF216D11B9402A00F0D4
:10139800E480226D22B92169B1F5404F00F0E48064
:1013A800628D92B2002A62D102925A6902929A69B7
:1013B8000292029A1A6842F400721A6000232365A6
:1013C80020E5A26B002A7FF428AF1BE522297FF4D1
:1013D80061AF1A6822F400621A605A6815053FF571
:1013E80069AF61E794F83D10602900F09C805A6964
:1013F800550605D5626A1B691370636A0133636217
:10140800204603F09FFB76E728222363204684F8D2
:101418003D2003F057FB9EE6E16A94F83D20212A1F
:101428007FF4F0AC628D92B2002A7FF4E1AD082916
:1014380005D0202903D011F5803F40F0DC815A689F
:1014480022F4E0625A601A68002142F400722025F2
:101458001A602046216384F83D5084F83E10FFF757
:10146800C3FBCFE40021216384F83D2024E7628D8B
:1014780092B2012A00F08680628D92B2022A00F0B0
:1014880042811A6842F480621A605A6811050ED5C2
:1014980010F5803F07D001381F2808D8AB4A22FA38
:1014A80000F0C20703D55A6842F480525A600022FD
:1014B80008925A6908929B690893089B7EE75A68C4
:1014C80022F480625A601B690B70A9E55A680428E7
:1014D80022F480625A603FF47AAE02283FF477AE75
:1014E8001A6822F480621A6071E6A06B984B036553
:1014F800FFF7CAF800283FF4FEAE23685A6952067F
:1015080006D5626A1B691370626A236801326262D7
:101518001A68A06B22F0010220211A60036D84F87A
:101528003D109847E7E6202184F83D1022645A6967
:10153800560606D5626A1B691370626A236801320F
:1015480062621A6822F001021A60204603F01AFB50
:10155800D1E6212A3FF48CAC86E400915A690092C6
:101568009B690093009B4DE401925A6901929A6924
:101578000192019A1A6842F480721A60236D01334D
:1015880023653FE410F5803F00F00481082800F04F
:10159800F180202800F0EE80122D00F0E88010285D
:1015A80005D86C4A22FA00F0C20700F11F811A68B8
:1015B80022F480621A60002205925A6905929B699A
:1015C8000593059BFAE601281A6871D010286FD098
:1015D800042800F0FC80022800F0F98042F4007230
:1015E8001A601B690B70638D626A2168013B9BB2AC
:1015F80063850B69511C61625370638D2168626A4F
:10160800013B9BB263854B68013223F44073202071
:1016180062624B6084F83D0094F83E30402B00F045
:10162800CD800022122384F83E2020462363FFF752
:10163800DDFAFFF7E7BBE06A02283FF4E3AB0129D4
:101648003FF6E0AB44490A920A6846F2A811B2FB99
:10165800F1F202EB82020A920A9A013A0A920A9974
:10166800002900F0EA801A6812F40072F4D11968AF
:10167800606A21F480611960596821F4E061596059
:101688001B690370638D616A013B9BB220206385EF
:1016980084F83D0094F83E300131402B6162C1D19D
:1016A80084F83E2020462263FFF702FBFFF7AABB1F
:1016B80022F480621A6094E7082D05D0202D03D00B
:1016C80015F5803F40F0A8805A6822F4E0625A601D
:1016D80019680022202041F400711960226384F8FF
:1016E8003D0094F83E3084F83E20402B204600F020
:1016F8008F80FFF779FAFFF785BB5A6822F480627A
:101708005A60FFF77FBB102828D91A6822F4806234
:101718001A601A6842F400621A605A6815050DD5F5
:1017280010F5803F06D001381F2807D8074AC24065
:10173800D00703D55A6842F480525A6000220792B3
:101748005A6907929B690793079B37E68180008057
:10175800BD0C0008140001000C000020454AC240DE
:10176800D607D2D51A6842F480621A60D5E70128F4
:101778003FF41DAF1A68002122F480621A600691B6
:101788005A6906929A690692069A1A6842F4007291
:101798001A6013E61A6822F480621A605A6812F412
:1017A800006218D01A68002122F480621A6003913E
:1017B8005A6903929B690393039BFFE5002384F80E
:1017C8003E3020462363FFF773FAFFF71BBB42F452
:1017D80080621A6005E704925A6904929A69049231
:1017E800049A1A6842F400721A60E7E51A6842F42B
:1017F80080621A60DFE65968112621F4E06120252D
:1018080059602046266384F83E2084F83D5070E7EE
:10181800FFF7F2F9FFF7F6BA5A68112622F4E062E8
:10182800002520215A602046266384F83E5084F81B
:101838003D10FFF7D9F9FFF7E5BA226C606A42F06C
:10184800200222645A6822F4E0625A601B6903701D
:10185800638D626A013B9BB201322020638562621C
:1018680084F83D00204684F83E1003F06BF9FFF73A
:10187800C9BA00BF14000100F8B503685D695A6869
:1018880090F83E10CEB2E90504469C46C5F34020C8
:101898007ED5110ACF077BD56FF480725A61002874
:1018A80040F08580680540F1DA800127628D94F860
:1018B8003D10206B202E92B2C9B200F0AF806FF4B9
:1018C8008062102E47F004075A6101D0402E03D1E0
:1018D8001A6842F400721A602E059C4605D56FF40A
:1018E800006347F00807CCF81430236C1F432764C3
:1018F80094F83D2094F83E30DBB2102BD2B268D079
:10190800402B66D002F02803282B00F08280DCF8F8
:1019180004301D0507D4602A05D02022002384F84E
:101928003D2084F83E3000232363DCF8043013F4B0
:1019380000635BD0DCF80430606B23F40063CCF800
:10194800043090F83530012B00F0AB80824B0365F2
:10195800FEF79AFE50B12268606B1368016D23F0A0
:1019680001032025136084F83D508847236C1B072A
:1019780004D02268536823F4E063536094F83D3040
:10198800226C5707DBB202D5282B00F0A880F8BDDF
:1019980010B1110ACF071AD4C5F380271FB1D1059A
:1019A800F5D5002782E72905F1D5110A08E00327B4
:1019B8006FF4007268055A613FF578AF2A0504D5BF
:1019C800CB078CD4002FE2D023689C468DE70227F2
:1019D800EEE7222A96D1DCF8003023F40063CCF835
:1019E8000030DCF804301E059DD496E794F83D20BD
:1019F800602A3BD0DCF814305A0606D5636ADCF856
:101A080010201A70636A01336362204603F09AF863
:101A1800ACE70022226384F83D3086E7CAB901F0BA
:101A2800F702212A03D0282913D1212811D194F8AB
:101A38003D20E16A0829D2B25ED020295CD0212A53
:101A480073D06FF480625A612D05BBD5D4F800C0FD
:101A580045E76FF4806247F004075A613CE72A05BE
:101A68004FF001073FF53BAF9C463EE7202284F844
:101A78003D202364DCF81430590608D5636ADCF885
:101A880010201A70636AD4F800C001336362DCF86E
:101A9800003023F00103CCF80030204603F072F840
:101AA80064E7A06B2C4B0365FEF7EEFD00283FF4BE
:101AB8005DAF23685A69500606D5626A1B691370C0
:101AC800626A2368013262621A68A06B22F001021E
:101AD80020211A60036D84F83D10984746E71F4B94
:101AE800E362202200232363204684F83D2084F803
:101AF8003E30FFF77FF8F8BD282AA0D1174AE262E6
:101B08005A686FF4806122F4E0625A6059611A6879
:101B18000A401A60002120232163204684F83D30C2
:101B280084F83E10FFF766F88EE70C49E162202042
:101B38000021226384F83D0084F83E105A686FF44F
:101B4800806122F4E0625A6059611A680A401A609A
:101B5800204602F0D7FF77E7BD0C00080000FFFF22
:101B6800006C7047E8B138B5D0E9003182684CF6AE
:101B7800CC45044645F255501D60186059609A607E
:101B8800FEF7E6FC054604E0FEF7E2FC401B3028C1
:101B980009D82368D8680028F6D14AF6AA221A601C
:101BA80038BD01207047032038BD00BF03684AF6DE
:101BB800AA221A60002070472DE9F04F066889B004
:101BC8000446304601F0C0FC10B109B0BDE8F08F02
:101BD8000546206801F086FC0028F6D0206801F050
:101BE80081FC10F0020F20681EBF436903F0020356
:101BF800436101F077FC10F0100F206811D0836961
:101C080023F010038361376AC7F34343022B07F0BD
:101C18000F085DD0062B00F08382836943F0100320
:101C2800836101F05FFC10F4002F206840F0C6814A
:101C380001F058FC10F4802F206840F00A8101F070
:101C480051FC002864DB206801F04CFC010530D40D
:101C5800206801F047FCC3046ED4206801F042FC00
:101C680010F4005F206840F0DD8001F03BFC0707BE
:101C780000F1CF80206801F035FCC60200F1BF807A
:101C8800206801F02FFC850200F1AF80206801F088
:101C980029FC400000F1A080206801F023FC4107E6
:101CA80093D523685D686A070DD45A682A435A6039
:101CB8008BE7D6F80838DA0726D42068436903F496
:101CC80000634361C5E7204602F0D4FC2368ECE7D3
:101CD80047F6F0731F42A0D0C8EBC80804EB880889
:101CE800C7F30A17D8F808123A46304601F07EFBC7
:101CF800D8F80812D8F81422206839443A44C8F8A9
:101D08000812C8F8142288E7204602F08BFCD4E7B2
:101D180094F8F413D6F80428012922F00102C6F831
:101D2800042800F0D181204602F094FC2068436921
:101D380003F00043436187E706F500677B68206886
:101D480023F0010310217B6001F040F96068F8B1CD
:101D580006F510634FF67F3199601A6822F4001275
:101D68001A601A6842F000621A60C3F80812D3F8C1
:101D7800002222F40012C3F80022D3F80022013511
:101D880042F000628542C3F8002203F12003E3D148
:101D9800FB69226B43F00113FB61002A00F0898183
:101DA800D7F8843043F00B03C7F884307B6C43F0DA
:101DB8000B037B64D6F80038217C206823F4FE638B
:101DC800C6F8003804F5717201F0D2FB2068436947
:101DD80003F48053436141E7204602F047FC206842
:101DE800436903F08043436157E72046002102F02E
:101DF80035FC2068436903F40013436147E7204634
:101E0800002102F02FFC2068436903F4801343612A
:101E180037E7204602F0ECFB2068436903F008032B
:101E2800436128E701F094FB206801F0E1F8E060E5
:101E3800256800F089FD227B0146284601F04AF812
:101E4800204602F0D9FB2068436903F4005343613C
:101E58000BE701F053FB80462068B8F1000F3FF410
:101E6800EEAE06F51063CDE90365A3464FF0000A10
:101E78001E4607E05FEA58080AF1010A0BF11C0B3D
:101E880000F0D38018F0010FF4D05FFA8AF94946C0
:101E980001F046FB0546E80717D5039B2169D3F8EF
:101EA800340801270AF00F0207FA02F220EA0200BA
:101EB80006EB4A12C3F834081346B9429F6000F093
:101EC8000A814946204602F089FB290703D506EB1B
:101ED8004A1308229A60EA0603D506EB4A13102231
:101EE8009A606B0603D506EB4A1340229A60AF0747
:101EF80003D506EB4A1302229A6027682D06384656
:101F0800B8D5DBE914138B42B4D807F5106202EB9D
:101F18004A121046DBF844200590CD1A9542806994
:101F28000697AC4628BF944680B20CF1030CB0EB80
:101F38009C0F31D38B4233D291B3CDF81C80DBF8A0
:101F48004810DDF8148007E0DBF850509D4240F25D
:101F58002B81DBF84420ED1A954228BF1546237CD7
:101F680000934A46ABB2384601F02AFAD8F818204E
:101F7800DBF84810DBF8543029442B4492B203357F
:101F8800B2EB950FCBF84810CBF85430DCD2DDF823
:101F98001C802768DBF85010994238463FF66AAF34
:101FA800069B0120D3F834280AF00F0100FA01F14A
:101FB80022EA01023846C3F834285BE701F096FAB2
:101FC80007462068002F3FF433AE4FF0000806F5AF
:101FD800306A04E07F0808F101083FF429AEFB07E6
:101FE800F8D55FFA88FB594601F090FA814619F056
:101FF800010F206838D119F0080F19D119F0100F06
:1020080003D00AEB481310229A6019F0200F03D06E
:102018000AEB481320229A6019F4005FDAD00AEB21
:1020280048134FF400529A60D4E7DDE9036506E6E9
:102038004FEA48120AEB02030821996000F5306361
:102048001344026C5F489968824257D90A0402D542
:102058004FF400429A60204602F0B0FA2169012943
:1020680000F0A6802068C9E74FEA48130AEB03028C
:10207800216900F5306E4FF0010C7344C2F808C0B6
:102088000129D0F840C09A683DD04F498C455AD0B4
:10209800B8F1000F07D1D4F8103223B904F57172E2
:1020A800414601F065FA2046594602F08DFA20684B
:1020B800A1E77B6943F4005343F02B037B613B6941
:1020C80043F00B033B6175E6002184F8F4132046C6
:1020D80000F08CF92AE6DBE911231344CBF84830E9
:1020E800BAF1000F7FF4EDAE236D002B7FF4E9AE5B
:1020F80004F57172206801F03BFAE2E6204602F02E
:102108005DFA20687AE7110724D52E498C457FF6B9
:1021180072AF12047FF56FAF4FF400429A606AE71E
:10212800082204F571713046C8EBC80801F05EF961
:1021380004EB8802C7F30A13D2F8141220680B4480
:10214800C2F8143269E51104E6D49106ABD5202211
:102158009A60A8E7910631D412F0280F7FF44BAFAC
:1021680018498C4501D91204D6D4C8EBC80204EB2F
:1021780082021969D2F80432C1F31201A3EB010CEF
:10218800D2F80812C2F814C20B44C2F80832B8F1E7
:10219800000F88D1D4F81032002B84D104F5717265
:1021A800012101F0E5F97EE7DDF81C802768F7E6F4
:1021B80004F57172206801F0DBF953E720229A6078
:1021C80019E700BF0A30544F0A31544F90F8BC2326
:1021D800012A0DD010B50446012284F8381080F881
:1021E800BC23006801F06EF9002084F8BC0310BD20
:1021F80002207047F8B501F00F05C5EBC504C5EB23
:10220800C50609064FEA840400EB86061ED404F5C9
:10221800FE740027011986F8FD714C780D708A60EC
:10222800CB7004B1CD80022B04BF00230B7190F852
:10223800BC33012B10D00123044680F8BC3300685E
:1022480000F0E2FE002084F8BC03F8BD3C3401270E
:10225800011986F83D70E0E70220F8BD38B501F0B5
:102268000F05C5EBC50400EB84040021C4F808225F
:10227800C4F8141284F8FD11C4F8103284F8FC5123
:1022880003691C2101FB0501012B08BFC4F80C22BE
:1022980001F5FE710068DAB21DB100F0F9FE002008
:1022A80038BD01F007F8002038BD00BF70B501F057
:1022B8000F05C5EBC50400EB840401210026A264C8
:1022C80084F83D10236584F83C50666503691C2139
:1022D80001FB0501012B08BFE2643C310068DAB25A
:1022E8001DB100F0D5FE002070BD00F0E3FF002016
:1022F80070BD00BF38B5436801F00F059D421FD877
:102308000B061FD4C1EBC1031C2404FB010100EB25
:102318008303002201F5FE7183F8FD2101230D706E
:102328008B7090F8BC239A421ED0044680F8BC33C8
:10233800006801F06FF8CDB1002084F8BC0338BD07
:10234800012038BDC5EBC5031C2101FB050100EBCD
:10235800830301223C3183F83D2001230D708B70EB
:1023680090F8BC239A42E0D1022038BD04F571727E
:10237800217C206801F0FCF8DEE700BF38B543682F
:1023880001F00F029A4221D8C2EBC203C2EBC20489
:1023980009064FEA830300EB840419D403F5FE739E
:1023A800C118002584F8FD5100250A708D7090F839
:1023B800BC33012B18D00446012380F8BC330068D5
:1023C80001F054F884F8BC53284638BD012038BDC4
:1023D8003C33C118012584F83D5000250A708D70E2
:1023E80090F8BC33012BE6D1022038BD704700BFFE
:1023F800002800F032812DE9F0410368DD0782B042
:1024080004462FD5AC498A6802F00C02042A00F071
:10241800EA808A6802F00C02082A00F0E08063680B
:10242800B3F5803F00F0E980B3F5A02F00F0788184
:10243800A14D2A6822F480322A602A6822F4802278
:102448002A60002B40F0DE80FEF782F8064605E0A1
:10245800FEF77EF8801B642800F2F2802B689B034D
:10246800F6D423689F0775D41A0715D56369002B1E
:1024780000F0A580914B904D01221A60FEF768F894
:10248800064605E0FEF764F8801B022800F2D880B3
:102498006B6F9B07F6D5236858073BD5864A136CA4
:1024A80013F0805340F0DB800193136C43F08053AA
:1024B8001364136C03F080530193019B0126804D34
:1024C8002A68D10540F1AC80A368012B00F0C980CF
:1024D800052B00F02F81784D2A6F22F001022A6720
:1024E8002A6F22F004022A67002B40F0BF80FEF713
:1024F8002FF841F28837804606E0FEF729F8A0EB6E
:102508000800B84200F29C802B6F9807F5D4002E83
:1025180040F0DC80A069C8B1674DAA6802F00C02DF
:10252800082A00F0D980674A00210228116000F0CB
:102538000B81FEF70DF82C46054604E0FEF708F877
:10254800401B02287CD823689B01F7D4002002B0E6
:10255800BDE8F081584A916811F00C0F24D09168B9
:1025680001F00C0108291CD0E368002B00F09280D0
:10257800554B514D01221A60FDF7EAFF064604E06B
:10258800FDF7E6FF801B02285AD82B689807F7D575
:102598002B68226923F0F80343EAC2032B602368FF
:1025A80062E752685602DFD4434A126895074BD552
:1025B800E268012A48D0012002B0BDE8F0813F4A14
:1025C8003D4D1360FDF7C4FF064604E0FDF7C0FF6C
:1025D800801B022834D86B6F9F07F7D45BE74A68E3
:1025E80050027FF51CAF344A126891037FF53AAF69
:1025F8006268002A7FF436AFDDE72F4A136843F498
:1026080080331360FDF7A4FF2B4D064604E0FDF769
:102618009FFF801B642813D82B689A03F7D520E7FF
:102628002A6842F480722A60FDF792FF07462B68F9
:10263800DA053FF549AFFDF78BFFC01B0228F6D935
:10264800032002B0BDE8F0811B4920690A6822F026
:10265800F80242EAC0020A6006E701207047002635
:102668002DE7154A136F43F001031367FDF770FF59
:10267800114D804641F2883705E0FDF769FFA0EB70
:102688000800B842DCD82B6F9B07F6D5002E3FF424
:1026980041AF1BE00C4A084D1360FDF759FF064691
:1026A80004E0FDF755FF801B0228C9D82B6899075D
:1026B800F7D42368D8E600BF00380240800E4742AE
:1026C800007000406000474200004742354A136CE2
:1026D80023F0805313641DE701283FF46DAF6B6846
:1026E800E26903F4800191427FF465AF226A03F046
:1026F8003F0191427FF45FAF47F6C072616A1A40AA
:102708008A427FF458AFA26A03F4403191427FF4C1
:1027180052AFE06A03F07063181A18BF01204BE744
:10272800204B1A6842F480221A601A6842F48032F8
:102738001A6067E71B4B1A6F42F004021A671A6F98
:1027480042F001021A6791E7FDF702FF064605E02D
:10275800FDF7FEFE801B02283FF672AF2B68990139
:10276800F6D4D4E90736D4E90902E16A0D4C3343BB
:1027780043EA8013520843EA0163013A0A4943EAEB
:10278800024301226B600A60FDF7E2FE054605E0A0
:10279800FDF7DEFE401B02283FF652AF23689A0180
:1027A800F6D5D3E60038024060004742154908B51F
:1027B8008B6803F00C03082B01D0134808BD4A6846
:1027C8004B6813F4800302F03F0210D149680E48A9
:1027D800C1F38811A1FB0001FDF7F2FC094B5B680E
:1027E800C3F3014301335B00B0FBF3F008BD4B6852
:1027F8000548C3F38813A3FB00010023FDF7E0FCA1
:10280800ECE700BF003802400024F40060B1494AF8
:10281800136803F00F038B4208D2CBB2137013680E
:1028280003F00F038B4201D00120704703682DE9A4
:10283800F0419D0714D55C0704D53F4CA26842F4CB
:10284800E052A2601A0704D53B4CA26842F46042E9
:10285800A260394C8568A26822F0F0022A43A2607F
:10286800DF0704460D4622D54268012A57D0931E39
:10287800012B314B1B6859D9990725D52E4EB368C2
:1028880023F003031343B360FDF762FE41F2883778
:10289800804605E0FDF75CFEA0EB0800B84243D88F
:1028A800B368626803F00C03B3EB820FF2D1214ADC
:1028B800136803F00F03AB4209D9EBB21370136826
:1028C80003F00F03AB4202D00120BDE8F08123687A
:1028D8005A0706D51849E0688A6822F4E05202438C
:1028E8008A601B0712D4FFF761FF134B134C9B68D8
:1028F8001349144AC3F30313E35C20FA03F308688B
:102908001360FDF7DDFD0020BDE8F0810A4A21696A
:10291800936823F4604343EAC1039360E3E7064BFB
:102928001B689E03AAD4CFE70320EDE79801A5D43E
:10293800CAE700BF003C0240003802403079000876
:10294800080000200C000020014B1868704700BFE9
:102958000C000020044B054A9B680549C3F38223F9
:102968000868D35CD84070470038024040790008B6
:102978000C000020044B054A9B680549C3F3423309
:102988000868D35CD8407047003802404079000896
:102998000C000020704700BF704700BF704700BFA1
:1029A800704700BF03681A69910710B5044602D53D
:1029B800DA6892075FD41A69500702D5DA685107B6
:1029C80046D41A69120702D5DA6810072ED41A6994
:1029D800D20602D5DA68D00618D41A69D10702D50A
:1029E800DA68D2075DD41A69100602D5DA681106CA
:1029F8005FD41A69520602D5DA68500661D41A699A
:102A0800910602D5DA68920643D410BD6FF0100221
:102A18001A61DB69082213F4407F2277204664D0CC
:102A2800FFF7BAFF002223682277D6E76FF0080283
:102A38001A61DB69042299072277204652D1FFF7F1
:102A4800A9FF2046FFF7AAFF002223682277BEE7E6
:102A58006FF004021A619B69022213F4407F227707
:102A680020463CD1FFF796FF2046FFF797FF00224C
:102A780023682277A5E76FF002021A619B69012299
:102A88009B07027725D0FFF787FF0022236822776C
:102A980091E76FF0200220461A61BDE8104000F06F
:102AA8002BB86FF001021A61204601F049FF236834
:102AB80099E76FF080021A61204600F01FF823683A
:102AC80097E76FF040021A612046FFF769FF236815
:102AD80095E7FFF75FFF2046FFF760FFD5E7FFF7B1
:102AE8005BFFC4E7FFF758FFAEE7FFF753FF204649
:102AF800FFF754FF96E700BF704700BF704700BF5D
:102B0800002800F0938090F8393070B503F0FF0288
:102B18000446002B00F0858023682669242284F867
:102B28003920D86820F40050D4E90225D860196902
:102B3800E06921F4405129431961D9686569324334
:102B480021F416412A4321F00C0102430A43DA60BA
:102B58005A69A16922F440720A43B0F5004F5A61DC
:102B6800364A34D0934263D002F5806293425FD0F4
:102B7800FFF7F0FE6368324D1922A0FB02019A00AC
:102B88009B0FFDF71DFBA5FB00214909642202FBF1
:102B98001102120132322368A5FB0202090101EB7E
:102BA80052129A601A6922F490421A615A6922F004
:102BB8002A025A61DA680025202142F40052DA60BC
:102BC8002846E56384F8391084F83A1070BD9342BA
:102BD80031D002F5806293422DD0FFF7BBFE6268C8
:102BE800002692184FF0190146EB0603A0FB0101DD
:102BF800FDF7E6FA124E2368A6FB00214D09642270
:102C080002FB1502D2003232A6FB0212520902F070
:102C18000701520001EB051102F4F8720A449A60A8
:102C2800C0E780F8382001F03DFB75E701207047C8
:102C3800FFF7A0FE9EE7FFF79DFED0E700100140DA
:102C48001F85EB5190F83930202B18D1C9B1C2B18A
:102C580090F83830012B12D030B400230568C284B4
:102C68002124C36380F83940EC68016244F0800491
:102C7800828480F838301846EC6030BC70470220F7
:102C880070470120704700BF90F83A30202B20D1C0
:102C980009B302B390F83830012B1AD030B40023AE
:102CA8000468C2852225C36380F83A50E5688285A6
:102CB80045F48075816280F83830E560626942F0D9
:102CC80001026261E26842F020021846E26030BC0C
:102CD8007047022070470120704700BF10B5846814
:102CE8000169836A0268B4F5805F20D05C1C526871
:102CF8008462C9B91A70C38D013B9BB2C3858BB975
:102D08000268D16821F02001D160D16821F4807176
:102D1800D1605169202421F00101516180F83A40C5
:102D280001F07EFD002010BD02F07F02E2E752684C
:102D380029B9C2F3080223F8022B8362DBE7D2B277
:102D480023F8012B8362D6E703681A6870B5160763
:102D5800DD685969044646D011F001014CD0D0070E
:102D680005D5EE0503D5E06B40F00100E0635007A0
:102D780074D529B1E06B960740F00200E06371D486
:102D8800160703D5A80672D4002970D1E16B002973
:102D980031D0960601D5A80672D45D69E16B0907A2
:102DA80002D415F0400578D0DA6822F49072DA601F
:102DB8005A69202122F001025A6184F83A105A69AE
:102DC800520659D55A69606B22F040025A610028B0
:102DD80052D03A4B0365FDF757FC60B1606BBDE814
:102DE8007040036D1847910609D5AE0607D590F8CF
:102DF8003A30222B4DD070BD15F4907FAFD1160616
:102E08000ED45106F7D56A06F5D5DA68202122F0E6
:102E18004002DA60204684F8391001F0B9FC70BD30
:102E28002806EED594F83920212AE4D1A168226A2F
:102E3800B1F5805F36D0511C216212785A60E28C5D
:102E4800013A92B2E284002AD5D1DA6822F08002EF
:102E5800DA60DA6842F04002DA6070BD90078FD518
:102E680000298DD0E06B40F00400E06388E7E16B57
:102E780041F00801E16389E7204601F019FD70BDC2
:102E880094F83A20222A88D12046FFF727FF2368A2
:102E980083E7BDE87040FFF721BF204601F008FD39
:102EA800E56370BD11882069C1F30801596010B944
:102EB80002322262C3E701322262C0E7C92E00084B
:102EC80008B5836B0022DA851846DA8401F0F0FC35
:102ED80008BD00BF022A0AD04FF41051C26822F47C
:102EE8007052C260C3680B43C360002070472D4B0B
:102EF8002D4A0B44934243D92C4B2D4A0B44934201
:102F08003BD9A1F574032B4AA3F5105393423AD940
:102F1800A1F1837302F5C332A032A3F5E7439342CC
:102F280034D9254B254A0B44934232D9244B02F518
:102F3800922202F578720B4493422DD9214B02F567
:102F4800C32202F520720B449342C5D9A1F1B7738D
:102F580002F5B71202F55872A3F5585393421ED9D9
:102F6800194B02F5122202F5F8620B4493428CBF0A
:102F78004FF4C0514FF4E051B0E74FF46051ADE762
:102F88004FF47051AAE74FF45051A7E74FF440515E
:102F9800A4E74FF43051A1E74FF420519EE74FF4D6
:102FA80000519BE7405327FFFF340C00401E1BFFD6
:102FB8003F420F007F4F120060B6E5FE5FE3160048
:102FC80000D3CEFEC05BB3FEE05459FE890141F048
:102FD80020010161054A01E0013A05D0036913F0B7
:102FE8002003F9D11846704703207047400D0300AD
:102FF800D0F8083813F0060004D013F0020F14BFFD
:1030080002200F20704700BF30B40A784D7802F0D4
:103018000F040123012D03FA04F300EB421400F519
:10302800006019D0C26942EA0343C361D4F8003B87
:103038001B040ED48A68C878D4F8001BC2F30A02AD
:1030480042F0805343F4004343EA80430B43C4F8FF
:10305800003B002030BC7047C5692B43C361D4F8DE
:1030680000391804F5D48B68C878D4F80019C3F36C
:103078000A0343F0805343F4004343EA804343EA9E
:1030880082520A43C4F80029002030BC704700BFB0
:103098002DE9F04791F801C00E784B69CF78BCF163
:1030A800010F00EB46154ED005F530642669D1F8BE
:1030B80008C0F60CF6042661266926F0FF5626F4A9
:1030C800C01626617BB3DFF8E8E1D4F8108003EB83
:1030D8000C06013EB6FBFCF60EEAC64343EA0803BB
:1030E8002361B6B20CFB06F32669C3F3120333431C
:1030F800012A236122D0012F0CD1D0F8083813F40B
:10310800807FD5F8003B0CBF43F0005343F0805359
:10311800C5F8003BD5F8003B43F00443C5F8003B35
:103128000020BDE8F0872669CCF3120333432361FE
:103138002369012A43F400232361DCD1CB68002BE7
:10314800D9D06361D7E705F51064F3B3D4F81080DC
:10315800D1F808A0DFF858E14FEAD8484FEAC84844
:10316800C4F81080D4F8108028F0FF5828F4C0184C
:10317800C4F81080D4F810900AEB030808F1FF385F
:10318800B8FBFAF80EEAC84E4EEA090EC4F810E089
:10319800D4F81080C3F3120E4EEA080E012FC4F8BB
:1031A80010E054D0012A60D0D5F8003943F0044328
:1031B800C5F80039D0F8343806F00F060CFA06FCCA
:1031C8004CEA0303C0F83438AAE7D4F810C02CF04E
:1031D800FF5C2CF4C01CC4F810C0D4F810C04CF428
:1031E800002CC4F810C0D4F810C04FEADC4C4FEAE9
:1031F800CC4C012AC4F810C037D0D5F80049012FAB
:1032080044F00444C5F800498AD1D0F8084814F4B9
:10321800807FD5F800490CBF44F0005444F0805436
:10322800C5F80049002A7FF47BAF9BB203339A08A4
:103238003FF476AFCB6800EB063003EB820200F573
:10324800805053F8041B01609342FAD168E7D4F820
:1032580010C02CF0C04CC4F810C0D4F810C0012A1B
:103268004CF0005CC4F810C01AD10B6903B163615B
:10327800012F0CD1D0F8083813F4807FD5F8003925
:103288000CBF43F0005343F08053C5F80039D5F81C
:10329800003943F00443C5F800390020BDE8F08741
:1032A800D5F8004944F00444C5F80049ADE700BF2B
:1032B8000000F81F4B78F0B40D784E69012B00EB35
:1032C800451427D004F530631D698868ED0CED04BA
:1032D8001D611D6925F0FF5525F4C0151D6106B156
:1032E80048611D6945F400251D611D69C0F3120080
:1032F8002843012A186108D0D4F8003B43F004435E
:10330800C4F8003B0020F0BC7047CA68002AF3D01C
:103318005A61F1E704F510639EB31F69D1F808C03C
:10332800FF0CFF041F611F6927F0FF5727F4C01720
:103338001F611F69B44547F4002738BFC1F814C09E
:103348001F6138BF6646D3F810C0C6F3120747EAB4
:103358000C07012A1F612DD0D4F8003943F004432B
:10336800C4F80039002ECDD0D0F8342805F00F0568
:10337800012303FA05F51543C0F834580020F0BCC2
:103388007047186920F0FF5020F4C01018611869C0
:1033980040F4002018611869C00CC004012A1861A3
:1033A80008D0D4F8003943F00443C4F800390020A9
:1033B800F0BC70470A69002AF3D05A61F1E700BFF0
:1033C80010B49DF804406CB903339B080AD000EB95
:1033D800023000F5805001EB830351F8042B0260A2
:1033E8008B42FAD100205DF8044B704703329208F3
:1033F8000DD010B401EB820200F580540846236812
:1034080040F8043B8242FAD15DF8044B7047084605
:10341800704700BF4A780B78012A00EB431012D09E
:10342800D0F8002B002A06DB2BB1D0F8003B23F0A4
:103438008043C0F8003BD0F8003B43F40013C0F8C9
:10344800003B00207047D0F80029002A06DB2BB18A
:10345800D0F8003923F08043C0F80039D0F800399B
:1034680043F40013C0F8003900207047CB780A787D
:103478004978023B0129DBB200EB421011D0D0F8A9
:10348800002B012B22F40012C0F8002B01D90020D8
:103498007047D0F8003B43F08053C0F8003B002051
:1034A8007047D0F80029012B22F40012C0F8002937
:1034B800EDD8D0F8003943F08053C0F80039002027
:1034C800704700BFD0F8003823F4FE63C0F8003816
:1034D800D0F80038090101F4FE611943C0F800185A
:1034E800002070474269806910407047D0F818384A
:1034F80000F50060C0691840000C7047D0F8183813
:1035080000F50060C069184080B2704700EB4111B7
:1035180000F50060D1F8082B40691040704700BFE3
:1035280010B4D0F81048D0F8343800EB411001F04E
:103538000F0100F51060CB40DB01DBB2806823434C
:1035480018405DF8044B7047406900F0010070476F
:10355800D0F8003923F4FF6323F00703C0F80039DB
:10356800D0F8043843F48073C0F80438002070475A
:1035780030B4124C056CA54200F5306303D9D0F87D
:10358800004B002C16DB00241C611C6944F4002449
:103598001C611C6944F018041C611C69012944F071
:1035A800C0441C6106D15A61D0F8003B43F0802327
:1035B800C0F8003B002030BC704700BF0A30544FB1
:1035C800D0F8BC320020C3F80812C3F810227047A4
:1035D800D0F8BC2292B138B5D2F814420CB101200F
:1035E80038BDD2F810320125C2F814528121D2F820
:1035F8000822C36201F090F8204638BD03207047C6
:10360800D0F8B8320BB11B6818470320704700BFC9
:1036180008B5D0F8B8320BB15B689847002008BDF0
:1036280038B5044600F2AA25284600F08DFB94F828
:10363800AA12B4F8B032C4F89832012201F01F037C
:103648009342C4F8942215D00ED3022B05D12946F3
:103658002046BDE8384000F0DDBA204601F0800180
:10366800BDE8384001F01AB829462046BDE8384080
:1036780000F000B929462046BDE8384000F09CBA61
:1036880070B5044631B90D46D0F8941203290CD010
:10369800002070BDD0F8B8229269DAB190F89C3257
:1036A800032B17D1BDE8704010471146D0F85C31A4
:1036B800D0F8602193420FD8D0F8B8321B6923B1F3
:1036C80090F89C22032A00D19847204600F06EFB10
:1036D8000020DEE7032070BD9B1A9A42C0F85C31D7
:1036E80028BF1A4600F05AFB284670BD70B504463C
:1036F80082B061B91546D0F89422022A17D094F8FE
:10370800A032012B4FF000000DD002B070BDD0F8F0
:10371800B8325B6943B390F89C22032A24D102B0E3
:10372800BDE87040184784F8A00202B070BDD0E927
:103738000726B2421BD827D0D4F8B832DB682BB1A1
:1037480094F89C22032A01D12046984780212046DC
:1037580000F0A4FF204600F035FB94F8A032012BBE
:103768004FF00000D1D1DEE7032002B070BD921BFC
:103778000191C261294600F009FB019B20461A46C7
:10378800194600F0D7FFBAE78569AA42D4D8D0F81D
:1037980098229542D0D20A46019100F0F7FA019B8F
:1037A800C4F898321A461946204600F0C3FFA6E727
:1037B800D0F8BC320021012270B5044680F89C2262
:1037C800C0F894124160C0F8A4121BB1D0F8B83206
:1037D8005B689847002240231D4611460126204673
:1037E80000F04CFFA4F86461C4F860512B46002235
:1037F8008021204600F042FFA6842562002070BD8B
:1038080001740020704700BF90F89C2280F89D2228
:10381800042380F89C320020704700BF90F89C3247
:10382800042B04BF90F89D3280F89C32002070472A
:1038380090F89C22032A01D00020704708B5D0F8E0
:10384800B832DB6903B19847002008BD00207047F3
:103858000020704700207047D0F8B822012180F876
:103868009C122AB108B5526801799047002008BD1A
:103878000020704770B50B7803F06003202B82B0EE
:103888000D46044628D0402B26D05BB18021204627
:1038980000F004FF2046002100F000FF0025284624
:1038A80002B070BD4B78092BF0D801A252F823F072
:1038B800573900088739000895380008A5390008E5
:1038C80095380008B1390008F33900089538000820
:1038D8000F3A0008F5380008D4F8B83229469B6832
:1038E800204698470546284602B070BD8D78B14EEF
:1038F800012D357000F2128190F89C32022B00F0F5
:103908001681032B40F02481002D00F03C81416892
:10391800012900F0FF80C9B2FFF77AFE31786160B3
:103928002046FFF76DFE0546002800F0F380802151
:10393800204600F0B3FE0021204600F0AFFE2179BA
:103948002046FFF765FE022384F89C32A7E790F82B
:103958009C32013B022B4FF0030297D8CB88022BF5
:1039680094D1D0F8A4320121C16003B1C26002220F
:1039780004F10C01204600F0FBF900258FE790F8D0
:103988009C32013B022B81D84B88012B4FF000055C
:1039980085D1C0F8A45200F009FA80E74B88012BC2
:1039A80000F0B68000257AE78B88002B7FF46EAF95
:1039B800CE88002E7FF46AAF4D887F2D3FF666AF24
:1039C80090F89C32032B3FF461AFE9B280F89E1265
:1039D80000F094FE204600F0E9F9002D00F0E580A3
:1039E8000223354684F89C3259E74A88130A002195
:1039F800013BADF80610062B5FD8DFE803F0523D17
:103A0800355E5E491800CA88012A7FF43FAF90F8F6
:103A18009C32002B3FF43AAF022B40F2A680032BD6
:103A28007FF434AF011D00F0A3F9002537E7037CCC
:103A3800002B42D1D0F8B8320DF106001B6B984725
:103A480007234370EB88002B64D0BDF80620002ABA
:103A580033D0934228BF134601461A462046ADF894
:103A6800063000F085F99DE7D2B2052A25D8DFE8AF
:103A780002F02049433D372D027CD0F8B832002AA5
:103A88007AD19B6A0DF10600984702234370D9E763
:103A9800037C93B9D0F8B8320DF106005B6B9847F8
:103AA800D0E7D0F8B432007C1B680DF106019847C6
:103AB800C8E7D0F8B4325B686BB98021204600F0C3
:103AC800EDFD2046002100F0E9FD6BE7D0F8B432A7
:103AD8009B69002BF1D00DF10601207C9847B1E7D6
:103AE800D0F8B4325B69002BF5D1E6E7D0F8B432F0
:103AF8001B69002BEFD1E0E7D0F8B432DB68002B6C
:103B0800E9D1DAE7D0F8B4329B68002BE3D1D4E7E7
:103B1800C0F8A432204600F049F943E7802100F0BC
:103B2800BDFD2046002100F0B9FD0325B7E6002DB4
:103B3800F0D001214160FFF763FD054670B3802195
:103B4800204600F0ABFD2046002100F0A7FDA6E6C8
:103B5800802100F0A3FD0021204600F09FFD317870
:103B68002046FFF755FD032599E60146002541F853
:103B7800085F00F0FDF892E6DB6A0DF10600984751
:103B8800022343705EE70223456080F89C32294691
:103B9800FFF73EFD204600F009F980E6204600F0D8
:103BA80005F9032384F89C3279E6012384F89C32D2
:103BB80075E600BFCC05002070B50B7803F06003F4
:103BC800202B0D4604460DD0402B0BD053B180213D
:103BD800204600F063FD2046002100F05FFD00262E
:103BE800304670BD94F89C32013B022BEFD82B79FC
:103BF800012BECD8D4F8B83229469B682046984760
:103C0800EB880646002BEBD10028E9D1204600F0CE
:103C1800CDF8E5E770B50B7803F06003202B054677
:103C280027D0402B25D00C464BB18021284600F0E8
:103C380035FD2846002100F031FD002070BD4B788D
:103C48008A88012BD1B242D01AD3032BEDD190F838
:103C58009C32022B52D0032BE7D163882BB94A063A
:103C680003D0E3880BB900F019FD284600F09EF850
:103C7800E3E7D5F8B83228469B68BDE87040184796
:103C880090F89C32022B42D0032BCED101F00F03C7
:103C980003EB8303120600EB830347D4B3F86431C4
:103CA800002BC2D001F07F03142404FB030404F5A5
:103CB800AA742BB1284600F00DFD002842D001233C
:103CC800236021462846022200F052F8B5E790F812
:103CD8009C32022B12D0032BA7D16388002BACD1C6
:103CE8004E0601D000F0E8FC284600F05FF8D5F851
:103CF800B83221469B68284698479EE74B0694D0E1
:103D080000F0CCFC2846802100F0C8FC95E7480666
:103D18008BD111064CBF05F1140105F5AA710023DA
:103D280028460B60022200F023F886E79B8C002BC4
:103D38003FF47BAF01F07F035C1C04EB840400EBD1
:103D48008404B6E72060BCE70B7803704B784370B7
:103D5800CA788B7843EA022343804A790B7943EA8D
:103D680002238380CA798B7943EA0223C380704790
:103D780038B5134602250A46C0E90633C0F89452FE
:103D8800002100F0C9FC002038BD00BF08B513466B
:103D98000A46002100F0C0FC002008BD08B5134603
:103DA8000A46002100F0C6FC002008BD08B5042220
:103DB8000023C0F8942219461A4600F0ADFC0020F2
:103DC80008BD00BF08B505220023C0F89422194693
:103DD8001A4600F0AFFC002008BD00BF101E19DD18
:103DE800F0B40D4DD5F80072D5F804420E183B1901
:103DF800B4F5007F01F10101C3F3080306D211F8FD
:103E080001CC05F803C00134C5F80442B142EED133
:103E1800F0BC7047704700BFD00500200B2812D8AF
:103E2800094930B401EB8004D1F80852D4F80C22C7
:103E3800012303FA00F028431A44C4F80C22C1F8FD
:103E4800080230BC70477047D0050020034AD2F8FA
:103E58003C320133C2F83C32704700BFD005002025
:103E68004FF06043D3F8802ED10719D5D3F8002E30
:103E7800D20715D51A689AB10A4AD2F8041279B14C
:103E880010B4D2F80042601C0139C0F30800145D78
:103E9800C2F80412C2F800021C705DF8044B7047A7
:103EA800704700BFD0050020034B0022C3F8002252
:103EB800C3F80422704700BFD005002030B50023A6
:103EC80095B0CDE90A33CDE90433CDE9063323496A
:103ED80001930C930393086C214A40F080500864C6
:103EE800096C01F08051019101990293136843F420
:103EF80080431360136803F48043029309204FF44E
:103F08008031012202234FF48005029C0890082486
:103F180009910D924821032208A80E931293CDE926
:103F28000F5411911392FEF763FA98B902220023F5
:103F38000F254FF4805403A81146CDE90352059389
:103F4800CDE90643FEF762FC10B1064803F038F9E4
:103F580015B030BD034803F033F9E7E700380240F5
:103F6800007000401C7D000800B500248BB0FCF7F1
:103F7800C9FAFFF7A3FFCDE90544CDE90744764B1D
:103F8800009409941A6B754842F004021A631A6B7C
:103F980002F004020092009A01941A6B42F0800227
:103FA8001A631A6B02F080020192019A02941A6B4A
:103FB80042F001021A631A6B02F001020292029A9D
:103FC80003941A6B42F002021A631A6B02F002029F
:103FD8000392039A04941A6B42F008021A631B6B4B
:103FE80003F00803049301224FF48171049BFCF74A
:103FF80015FD22464FF220015848FCF70FFD01221B
:104008004FF400715648FCF709FD01224FF40141B5
:104018005448FCF703FD22464FF4C0615148FCF7B1
:10402800FDFC22464FF480514D48FCF7F7FC012275
:1040380004214D48FCF7F2FC012542F20F0305A9C3
:1040480047480795CDE90534FCF734FB032305A958
:1040580044480593CDE90645FCF72CFB302305A918
:104068003F4805931126CDE90644FCF723FB05A933
:104078003A480596CDE90644FCF71CFB46F22213A4
:1040880005A936480593CDE906540894FCF712FBB8
:104098004FF4017305A931480593CDE90645FCF7AE
:1040A80009FB4FF48052022305A92C480592089376
:1040B800CDE90654FCF7FEFA4FF4004305A927485A
:1040C8000593CDE906640894FCF7F4FA4FF490538D
:1040D80005A923480593CDE906540894FCF7EAFAA4
:1040E8004FF4074305A91F480593CDE906540894E2
:1040F800FCF7E0FA042305A91B480593CDE906540B
:104108000894FCF7D7FA194B19495C6040F6FF721E
:10411800184619609A60FDF725FDA8B9154B164A8F
:10412800164C1A600C21002218465C605961C3E9DC
:1041380002221A61C3E90622FEF7E2FC40B900F048
:1041480025FE00F035FDFCE70D4803F039F8E5E7FA
:104158000B4803F035F8F2E700380240000402404B
:104168000008024000000240000C0240581E0020D7
:1041780000300040D01F00200044004040420F00A3
:104188001C7D0008014803F01BB800BF1C7D000817
:1041980082B00C4B002100915A6C42F480425A6460
:1041A8005A6C02F480420092009A01911A6C42F013
:1041B80080521A641B6C03F080530193019B02B078
:1041C800704700BF0038024070B50268204B88B0C5
:1041D80000249A42CDE90344CDE90544079401D06F
:1041E80008B070BD1B4D01942B6B1B4843F00203B4
:1041F8002B632B6B03F0020301934FF4406303938B
:104208001222012303A90492059303220423CDE972
:104218000623019EFCF74EFA02942B6C43F48003AC
:104228002B642B6C03F48003224621460293212041
:10423800029BFCF7B7F92120FCF7EAF92246214650
:104248002220FCF7AFF92220FCF7E2F908B070BD94
:1042580000580040003802400004024008B50268D7
:104268000D4B9A4200D008BD0C4A0D48136C23F43C
:10427800800313644FF48061FCF720FB4FF4006166
:104288000748FCF71BFB2120FCF7D0F92220BDE8EA
:104298000840FCF7CBB900BF005800400038024086
:1042A8000004024070B50368614A8EB0002493424E
:1042B800CDE90944CDE90B440D9436D05D4A9342CB
:1042C8005ED05D4A934200F086805C4A934201D0FA
:1042D8000EB070BD5A4B07945A6C5A4842F02002EF
:1042E8005A645A6C02F020020792079A08941A6BD3
:1042F80042F004021A631B6B03F004030893C02303
:1043080009A90322099302250823CDE90C23089E55
:104318000A95FCF7CFF9224621464720FCF742F9D7
:104328004720FCF775F90EB070BD454B01945A6CE7
:10433800454842F010025A645A6C02F01002019289
:10434800019A02941A6B42F002021A631B6B03F083
:1043580002030293C02309A9032209930225072314
:10436800CDE90C23029E0A95FCF7A4F922462146C2
:104378002520FCF717F92520FCF74AF90EB070BD87
:104388002F4B03941A6C314842F400321A641A6CA9
:1043980002F400320392039A04941A6B42F0010269
:1043A8001A631B6B03F0010304930C2309A903226E
:1043B800099302250723CDE90C23049E0A95FCF7EF
:1043C80079F9224621462620FCF7ECF82620FCF74E
:1043D8001FF90EB070BD1A4B05941A6C194842F4B7
:1043E80080221A641A6C02F480220592059A0694B7
:1043F8001A6B42F004021A631B6B03F00403069362
:104408004FF4406309A90322099302250723CDE944
:104418000C23069E0A95FCF74DF9224621462720D3
:10442800FCF7C0F82720FCF7F3F80EB070BD00BF0A
:1044380000100140004400400048004000140140C2
:104448000038024000080240000402400000024018
:10445800704700BFFEE700BFFEE700BFFEE700BFF2
:10446800FEE700BF704700BF704700BF704700BF3E
:10447800FCF762B80148FCF799BC00BF641E002035
:104488000148FDF7F9B900BF641E00200148FEF796
:104498005BBC00BFB81E00200148FEF755BC00BF3A
:1044A800D01F00200148FEF74FBC00BF181E002097
:1044B8000148FEF777BA00BFF81E00200148FEF752
:1044C80071BA00BF102000200148FDF775BB00BF7E
:1044D800202300200148FEF737BC00BF381F00200A
:1044E8000120704708B502F02DFD162303604FF038
:1044F800FF3008BD08B502F025FD16230360FEE76E
:1045080070B5161E07DD0C468D19AFF3008004F850
:10451800010BA542F9D1304670BD00BF0C4A08B561
:10452800136833B118446946884208D810601846A1
:1045380008BD084B1360184469468842F6D902F052
:1045480001FD0C2303604FF0FF33184608BD00BF80
:1045580010080020302700204FF0FF30704700BFC0
:104568004FF400534B600020704700BF0120704794
:1045780000207047054BD3F888204FF0006142F4C3
:104588007002C3F888209960704700BF00ED00E012
:1045980010B5094CD4F8BC32D3F814320BB1012051
:1045A80010BD0A4601462046FFF70AF82046BDE836
:1045B8001040FFF70DB800BF5020002000F57171C2
:1045C800D0F80404FFF72CB8C1EBC10300EB830358
:1045D800D0F80404D3F80822FFF752B8C1EBC1039E
:1045E80000EB8303D0F804049A6CFFF77FB800BF90
:1045F800D0F80404FFF71CB9C16810B5044621B10E
:1046080002290CD0FFF7BEFD0121D4F80404FFF7FE
:10461800F7F8D4F80404BDE81040FFF7C9B8012141
:10462800F3E700BF10B50446D0F80404FFF7ECF830
:104638002268D2F8003E43F00103C2F8003E236A24
:1046480023B1034A136943F00603136110BD00BF89
:1046580000ED00E0D0F80404FFF7E0B8D0F8040457
:10466800FFF7F6B8D0F80404FFF7F0B8D0F8040460
:10467800FFF7F0B8D0F80404FFF7EEB810B51C4601
:10468800D0F8C40213462246FDF7B4FD032896BFAE
:10469800014B0320185C10BD4879000808B5D0F814
:1046A800C402FDF727FE032896BF024B0320185CBF
:1046B80008BD00BF4879000808B5D0F8C402FDF766
:1046C8005DFE032896BF024B0320185C08BD00BF9F
:1046D800487900080A06D0F8C43206D4C1EBC101F3
:1046E80003EB810191F8FE01704701F07F01C1EBF6
:1046F800C10103EB810191F83E00704708B5D0F87D
:10470800C402FDF763FD032896BF024B0320185C23
:1047180008BD00BF4879000808B5D0F8C402FDF705
:10472800C5FD032896BF024B0320185C08BD00BFD7
:104738004879000808B5D0F8C402FDF78FFD0328B2
:1047480096BF024B0320185C08BD00BF48790008DB
:10475800704700BF10B5034B0360044602F024FB0A
:10476800204610BD5479000810B5034B0360044679
:1047780002F01AFB204610BDA479000810B5034BBF
:104788000360044602F010FB204610BDF4790008CF
:1047980070B5224C23781BB9D4F80824904222D053
:1047A80094F80C341BB9D4F81438984231D094F8E2
:1047B80018381BB9D4F8203C98422CD094F8243CE3
:1047C80023B941F22C03E35898420BD041F230034D
:1047D800E35C33B941F23843E358834208BF04230A
:1047E80001D070BD032340F20C4606FB03F6A31963
:1047F800D3F80434002BF4D01A6805461846136A17
:104808009847711C214428460122BDE87040FEF7F4
:104818003BBA0123E7E70223E5E700BFC40900200C
:1048280070B5224C23781BB9D4F80824904222D0C2
:1048380094F80C341BB9D4F81438984231D094F851
:1048480018381BB9D4F8203C98422CD094F8243C52
:1048580023B941F22C03E35898420BD041F23003BC
:10486800E35C33B941F23843E358834208BF042379
:1048780001D070BD032340F20C4606FB03F6A219D3
:10488800D2F80434002BF4D005465178184602F0CB
:10489800C9FA711C214428460122BDE87040FEF780
:1048A800F3B90123E7E70223E5E700BFC4090020C5
:1048B80070B5224C23781BB9D4F80824904222D032
:1048C80094F80C341BB9D4F81438984231D094F8C1
:1048D80018381BB9D4F8203C98422CD094F8243CC2
:1048E80023B941F22C03E35898420BD041F230032C
:1048F800E35C33B941F23843E358834208BF0423E9
:1049080001D070BD032340F20C4606FB03F6A31941
:10491800D3F80434002BF4D01A68054618465369B6
:104928009847711C214428460122BDE87040FEF7D3
:10493800ABB90123E7E70223E5E700BFC40900207C
:10494800564B984270B513D0554B984200D070BD65
:10495800544C554ED4F8045404F20C44284625B15E
:104968002B68DB68984700285FD1A642F2D170BD5A
:104978004E4C4F4923884F4A0868128801339BB22E
:104988000244B3F57A7F23800A600CD3A378002B06
:1049980064D000224FF480414748FCF73FF8FFF706
:1049A80055FA00232380454D2B68002B41D1002068
:1049B800FFF734FA6422002341482A606260E370FA
:1049C8002372FCF7F7F83E48FCF734F866682EB116
:1049D800E2781AB1013E6660002E4FD06B681BB1B9
:1049E800013B6B60002B3FD0A37813B90A20FFF777
:1049F80015FA04213048FCF70BF801282BD00820C1
:104A0800FFF70CFAAB68CBB9002202212A48FCF761
:104A180005F800230B20A370FFF700FA47F2305384
:104A2800AB60BDE87040FFF71BBA284602F01AFADF
:104A38009BE7013B2B60002BC8D1B8E7013BAB607B
:104A4800002BE1D0012202211B48FBF7E7FFBDE85C
:104A58007040FFF705BA64236B60D3E74FF48041D9
:104A68001548FBF7DFFF9AE701224FF480511248FF
:104A7800FBF7D4FF0920FFF7D1F9B5E70120FFF7CD
:104A8800CDF964230E48E67026722B606360FCF74C
:104A980091F80B48FBF7CEFFA0E700BFF81E0020F7
:104AA80010200020C4090020001E00201808002043
:104AB800041E0020001E00200004024010000020F8
:104AC800641E00200C4B834200D070470B4B0C4AED
:104AD800197A30B401290CBF0224002401250020D2
:104AE80064211C724FF47A749D70D8709460596078
:104AF800D870116030BC7047641E00201808002070
:104B0800100000200C4B834200D070470B4B0C4A1E
:104B1800197A30B404290CBF05240024012500208B
:104B280064211C724FF47A749D70D8709460596037
:104B3800D870116030BC7047641E0020180800202F
:104B48001000002038B50D4B834200D038BD0C4C06
:104B5800642300226360E270FDF702F80546022034
:104B6800FFF75CF96B0705D4E36800220133E360C3
:104B7800227238BD0320FFF751F9F5E7641E0020C3
:104B88001808002038B5084B834200D038BD074CC0
:104B98006423002504206360E570FFF73FF9E368AC
:104BA80025720133E36038BD641E00201808002018
:104BB8002DE9F0412448254F254E82B0FCF7F6FF39
:104BC8003D464FF00008D5F8044424B12368204638
:104BD800DB68984790B905F20C45AE42F3D1D7F897
:104BE8001C0C40B10368DB6898474FF480510246BB
:104BF8001848FBF713FF02B0BDE8F0812368204690
:104C08001B699847236820469B6998470028E2D08B
:104C18002368CDF80480DB69204601A9984700285D
:104C2800D9D02B7833B1012BD5D101460198FFF7A4
:104C3800AFFCD0E7D5F80834002BCCD00246019958
:104C48001846FDF7FFFFC6E7581E0020C4090020DC
:104C5800001E00200008024010B5054B0360044602
:104C680002F0A2F82046482102F052F9204610BD71
:104C7800F479000810B5054B0360044602F094F877
:104C880020463C2102F044F9204610BDA4790008D2
:104C980010B5054B0360044602F086F8204638211B
:104CA80002F036F9204610BD5479000870B52F4C33
:104CB8002F4D04F1280604F1240000F071FB304662
:104CC800012101F0A9FB2A4630462A4904F16C0665
:104CD80002F019F93046012100F022FC2A4630463C
:104CE800254904F1B40602F00EF93046002100F01F
:104CF80007FC2A463046214904F1F00602F003F980
:104D08003046002100F064FB2A461D49304604F174
:104D18001C0602F0F8F8304600F02CF92A4619492A
:104D2800304602F0F0F841F22C05174A41F228010A
:104D380000235350535141F2344141F23845535006
:104D4800C2F80434C2F80834C2F81038C2F814386B
:104D5800C2F81C3CC2F8203C1946535104F5947023
:104D680000F0E6F800F01CFAA06170BD18080020F9
:104D780000000020A95F0008854700087147000867
:104D88005D47000859470008C40900202DE9F0478D
:104D98005E4B5F4E5F4C4FF000094FF064080A20ED
:104DA800C6F8048086F80390C3F80080FBF7D6FBAA
:104DB800594802F005FA594B594AC4F8202C0125E4
:104DC80006F128000A211D80C4F81C0C84F81898E4
:104DD80001F0B6F8D4F81C0C036803219B6A9847C5
:104DE80004F61B01D4F81C0C4FF4806202F04AF858
:104DF8004146D4F81C0C02F01BF8D4F8203CD4F837
:104E08001C0C5968D3E90372B7F5005F14BF2B4631
:104E18000223B2EB090218BF012202F00FF8D4F8FE
:104E28001C0C036829469B68984741F2280706F13D
:104E3800B40329461846E35184F8245C01F0C4FE03
:104E4800E059036849469B6A9847E05904F62741A8
:104E58004FF4806202F016F84146E05901F0E8FF8D
:104E680041F22C03E059E358D3E903C2BCF5005FD3
:104E7800596814BF2B460223B2EB090218BF01225E
:104E880001F0DCFFE059036829469B68984741F226
:104E9800344741F2384A41F23002F036214B04F8E7
:104EA80002902946304644F80A30E65101F08CFE5B
:104EB800E059036804219B6A9847E0591A494FF45E
:104EC800806201F0DFFF4146E05901F0B1FF54F87C
:104ED8000A30E0595968D3E90362B6F5005F14BF98
:104EE8002B460223B2EB090218BF012201F0A6FFEC
:104EF800E059036829469B6898472A4654F80A00EF
:104F08000A49BDE8F047FDF7BFBE00BF100000200A
:104F180018080020C40900202C7D0008001E00206D
:104F2800181E0020D01F0020F7190020F5190020B6
:104F380070B5044600252026017045702946324682
:104F4800043002F031F884F8245084F8255084F8AD
:104F5800265084F827503246294604F1280002F0EA
:104F680023F84FF0FF3384F84850A370E3702046CD
:104F780070BD00BF10B400241022022104704170DB
:104F8800428082805DF8044B704700BFF0B50B2863
:104F980083B0064615683E4C0F4613D094F83C3152
:104FA800002B5CD0D4F84C31D4F840210192002B6E
:104FB80066D001AA0B209847019B1D4300284ED0BC
:104FC800032E25D094F85C30002B48D0E36E226E77
:104FD8000192002B56D001AA394603209847019B1D
:104FE8001D4300283BD0052E12D194F80431002B24
:104FF80035D0D4F81431D4F808210192002B43D0CD
:10500800394601AA09209847019B40B31D4312E085
:1050180094F894301BB3D4F8A430D4F898200192B3
:10502800002B33D001AA394605209847019B1D4320
:10503800A8B1092ED9D1236B01952BB101AA05215D
:105048000120984758B1019D236A9B060AD594F818
:105058002530A562012284F8242053B9E562012095
:1050680003B0F0BD01230120E56284F8253003B0C8
:10507800F0BDE36A5D1B18BF012584F82550EEE7F3
:1050880015439DE71543AEE71543D4E71543D0E72D
:1050980020000020F0B50C2883B0064615683F4C68
:1050A8000F4613D094F85831002B5DD0D4F86831EE
:1050B800D4F85C210192002B67D001AA0C209847F4
:1050C800019B1D4300284FD0042E26D094F8783039
:1050D800002B49D0D4F88830E26F0192002B56D0CB
:1050E80001AA394604209847019B1D4300283BD05C
:1050F800062E12D194F82031002B35D0D4F8303157
:10510800D4F824210192002B43D0394601AA0A2061
:105118009847019B40B31D4312E094F8B0301BB38D
:10512800D4F8C030D4F8B4200192002B33D001AAAF
:10513800394606209847019B1D43A8B10A2ED9D1AC
:10514800E36C01952BB101AA05210220984758B1BB
:10515800019DE36B9B060AD594F8413065640122F2
:1051680084F8402053B9A564012003B0F0BD0123A1
:105178000120A56484F8413003B0F0BDA36C5D1B29
:1051880018BF012584F84150EEE715439CE7154305
:10519800AEE71543D4E71543D0E700BF2000002051
:1051A80000487047081E0020044BC1EBC10103EB07
:1051B8008101087A00B1487A704700BF20000020BA
:1051C80070B52E2982B016D80D48C1EBC10400EB8A
:1051D8008400047A7CB18669C4680194012018703F
:1051E8005EB10846114601AA1D46B047019C2870C9
:1051F800204602B070BD00241C70204602B070BD6D
:1052080020000020034BC1EBC10103EB81031869A7
:10521800704700BF20000020F0B583B02E2901930D
:105228001ED8CF00154E7B1A06EB830315465B6923
:105238000C4623B101AA29462046984780B1391B5C
:1052480006EB810101234868019C03FA05F5054234
:1052580009D0487ACC600B7250B90C61184600E04E
:10526800002003B0F0BD18460C614B7203B0F0BDCE
:105278000B691C1B18BF01244C72F2E720000020A8
:1052880010B4464C0022234604F22451DA601A7204
:105298001A615A721C339942F8D10378D4F8F8127B
:1052A800012000FA03F319402DD094F8FD12C4F838
:1052B800002384F8FC02002967D1D4F8C022C4F87E
:1052C80004131A4027D10121C4F8CC2284F8C5124E
:1052D800D4F8DC221A402DD094F8E12200200121D4
:1052E800C4F8E40284F8E012002A3ED1C4F8E822A7
:1052F8006268134226D146F2014201232261637299
:105308005DF8044B7047C4F8041384F8FD02D4F820
:10531800C0221A40D7D094F8C52200200121C4F831
:10532800C80284F8C41242BBC4F8CC22D4F8DC22E8
:105338001A40D1D10121C4F8E82284F8E112626848
:105348001342D8D0627A46F201430121E360217208
:105358001AB923615DF8044B70472269D31A18BF44
:10536800012363725DF8044B7047D4F8E8220032D9
:1053780018BF012284F8E122E1E7D4F8CC220032F8
:1053880018BF012284F8C522A2E7D4F8042300320A
:1053980018BF012284F8FD22B9E700BF20000020D1
:1053A80010B5052304460370FFF76AFF204610BDB9
:1053B800024B052218461A70FFF762BF081E00202C
:1053C80001207047012380F837301846704700BF26
:1053D80010B5044601F0CEFC034B2360002384F88B
:1053E8003730204610BD00BF54790008F0B590F85A
:1053F800376083B000258DF8075056B190F8381003
:105408000129044608D0022956D02E46002384F8E4
:105418003730304603B0F0BD01F0D0FC0DF1070382
:1054280094F83420E0681C21FFF7CAFE2A46074694
:10543800C1B2204601F0C8FC2A46C7F3072120461E
:1054480001F0C2FC2A46C7F30741204601F0BCFC24
:105458002A46390E204601F0B7FC0DF1070394F8EF
:105468003420E0681D21FFF7ABFE2A460746C1B28B
:10547800204601F0A9FC2A46C7F30721204601F07F
:10548800A3FC2A46C7F30741204601F09DFC2A46A3
:10549800390E204601F098FC2A462946204601F09C
:1054A80093FC2A462946204601F08EFC2A462946C6
:1054B800204601F089FCA9E701F080FCA6E700BFBF
:1054C80038B501698A7880F838200123022A80F8E3
:1054D800373001D0184638BDCD798B7904464879E4
:1054E800097994F8342003EB052300EB032301EB3F
:1054F8000323E0681D21FFF78FFE94F8370038BDBD
:1055080010B5044601F036FC044B23600022322318
:1055180084F8372084F83830204610BDA479000874
:1055280010B5044601F026FC064B0749236000200D
:1055380005223723A063C4E90F2184F844302046AC
:1055480010BD00BFF4790008381E1424F0B583B0EC
:1055580002AB002203F8012D044690F83420C068FD
:105568001B21FFF72DFE9DF807509DB110F0070392
:10557800064612D0C20714D59A21204601F01EFC17
:105588006FF0010706EA070394F83420E0681B214E
:10559800FFF742FE284603B0F0BD1D46284603B07B
:1055A800F0BD83070ED410F00403F6D06FF00407A3
:1055B8002046722101F002FC00220121204601F060
:1055C80003FCDFE76FF00207F2E700BFF8B5272119
:1055D8000546C068FFF7E8FD40BB06462821E86895
:1055E800FFF7E2FD04460746A8BB2921E868FFF754
:1055F800DBFD04460646C8BB2A21E868FFF7D4FD50
:10560800044630B32846A42101F0D8FB3246284688
:10561800042101F0D9FB2A21E868FFF7F3FD32469F
:10562800C1B2284601F0D0FB2046F8BDA4210446AB
:10563800284601F0C3FB01210022284601F0C4FBE3
:105648002721E868FFF7DEFD0022C1B2284601F0F5
:10565800BBFB2046F8BDA421284601F0AFFB022180
:105668003246284601F0B0FB2821EAE7A421284663
:1056780001F0A4FB03213A46284601F0A5FB2921A5
:10568800DFE700BFF8B522210546C068FFF78CFDAB
:1056980040BB06462321E868FFF786FD0446074617
:1056A800A8BB2421E868FFF77FFD04460646C8BB6F
:1056B8002521E868FFF778FD044630B32846A42181
:1056C80001F07CFB32462846042101F07DFB2521B0
:1056D800E868FFF797FD3246C1B2284601F074FB2F
:1056E8002046F8BD94210446284601F067FB0121B5
:1056F8000022284601F068FB2221E868FFF782FDB6
:105708000022C1B2284601F05FFB2046F8BD942173
:10571800284601F053FB02213246284601F054FB8B
:105728002321EAE79421284601F048FB03213A4661
:10573800284601F049FB2421DFE700BF2DE9F04F9F
:105748005D4D5E4F2B7883B0044601AE0133DBB26A
:105758005A1E2B70042A42D8DFE802F03C2A18139C
:1057680003002046FFF732FF80462B78FF2B19D025
:10577800B8F1000FEAD04FF00108404603B0BDE889
:10578800F08F2046FFF77EFF8046EEE72021E06895
:10579800FFF70AFD8046002850D12B78FF2BD5D182
:1057A8004FF00008002340462B7003B0BDE8F08F8F
:1057B8004FF000090197C84616F809B0E068594645
:1057C800FFF7F2FC824618BB09F10209B9F1040F90
:1057D800F2D1CAE72046FFF7B9FE8046C5E7E26B7B
:1057E800002ADDD0A36B9A42D4BF00235A1C23445D
:1057F800D8BF012293F84060A2632046314601F0E9
:10580800DDFA382E32D000232B704FF00108B4E7B0
:10581800B821204601F0D2FA06EB09030022597894
:10582800204601F0D1FA5946E068FFF7EBFC002268
:10583800C1B2204601F0C8FAD046C5E79E212046ED
:1058480001F0BCFA00220121204601F0BDFA202116
:10585800E068FFF7D7FC0022C1B2204601F0B4FA95
:105868002B78FF2B9ED04FF0010886E700220121FC
:10587800204601F0A9FA00226421204601F0A4FA8A
:1058880002AB012203F8042DE06894F834201E21AD
:10589800FFF796FC9DF804300646002BB3D0C1B242
:1058A8000022204601F090FAC6F307212046002284
:1058B80001F08AFAA7E700BF440500201F09210A62
:1058C80038B50269D378132B01D8002038BD117977
:1058D800537990F83420044603EB0123C068032170
:1058E800FFF79AFC216994F834208D79CB79E06828
:1058F80003EB05230421FFF78FFC216994F834207A
:105908000D7A4B7AE06803EB05230521FFF784FC49
:10591800216994F834208D7ACB7AE06803EB05236B
:105928000621FFF779FC216994F834200D7B4B7B25
:10593800E06803EB05230921FFF76EFC216994F861
:1059480034208D7BCB7BE06803EB05230A21FFF72E
:1059580063FC216994F834200D7C4B7CE06803EBF0
:1059680005230B21FFF758FC216994F834208D7C1E
:10597800CB7CE06803EB05230C21FFF74DFC216984
:1059880094F834200D7D4B7DE06803EB0523082156
:10599800FFF742FC216994F834208D7DCB7DE068C7
:1059A80003EB05230721FFF737FC2269D3781B2B6C
:1059B8002CD9117E537EE06894F8342003EB012340
:1059C8000D21FFF729FC216994F834208D7ECB7EC8
:1059D800E06803EB05230E21FFF71EFC216994F80C
:1059E80034200D7F4B7FE06803EB05230F21FFF781
:1059F80013FC216994F834208D7FCB7FE06803EB9A
:105A080005231021FFF708FC012038BD012038BD0F
:105A180070B502690546D9B9D678092E1AD94C1C31
:105A2800E3B2013B081D092B2BD8DFE803F00C0C6F
:105A38000C0C0C0C272A051E135C95F83420E8681A
:105A48001F21FFF7E9FBA1B28E420CD92A69E6E7CC
:105A5800802901D0002070BD13790A2BFAD8092BB0
:105A68001AD00A2B0FD0012070BD135C95F8342092
:105A7800E8682121FFF7D0FBA1B2E5E7023189B23E
:105A8800E2E73146E0E7537990F83420C0682121F5
:105A9800FFF7C2FB012070BD537990F83420C0682D
:105AA8001F21FFF7B9FB012070BD00BF70B5026967
:105AB800D47809BBA4B20CB305460BE017281FD154
:105AC8001379E86895F83420FFF7A6FBB1B28C4249
