:020000040800F2
:1000000000000220598B0008D9560008DD56000870
:10001000E1560008E5560008E95600080000000017
:10002000000000000000000000000000ED56000885
:10003000F156000800000000F5560008F9560008C7
:10004000A98B0008A98B0008A98B0008A98B0008C0
:10005000A98B0008A98B0008A98B0008A98B0008B0
:10006000A98B0008A98B0008A98B0008A98B0008A0
:10007000A98B0008A98B0008A98B0008A98B000890
:10008000A98B0008A98B0008A98B0008A98B000880
:10009000A98B0008A98B0008A98B0008A98B000870
:1000A000A98B0008A98B0008A98B0008A98B000860
:1000B000A98B0008A98B0008A98B0008A98B000850
:1000C000A98B0008FD56000809570008A98B0008F5
:1000D000A98B000815570008215700082D57000864
:1000E000A98B0008A98B0008A98B0008A98B000820
:1000F000A98B0008A98B0008A98B0008A98B000810
:10010000A98B0008A98B0008A98B0008A98B0008FF
:10011000A98B0008A98B000839570008455700082B
:10012000A98B0008A98B0008A98B0008A98B0008DF
:10013000A98B00080000000000000000A98B000847
:10014000A98B0008A98B0008A98B0008515700084B
:10015000A98B0008A98B0008A98B00085D5700082F
:10016000A98B0008A98B0008A98B0008A98B00089F
:10017000A98B0008A98B0008000000000000000007
:08018000A98B0008A98B0008FF
:1001900010B5054C237833B9044B13B10448AFF3C1
:1001A00000800123237010BD5807002000000000CC
:1001B000AC9B000808B5034B1BB103490348AFF3E0
:1001C000008008BD000000005C070020AC9B000818
:1001D00053B94AB9002908BF00281CBF4FF0FF31AE
:1001E0004FF0FF3000F072B9ADF1080C6DE904CEAC
:1001F00000F006F8DDF804E0DDE9022304B0704702
:100200002DE9F047089E04468846002B4BD18A42D0
:10021000154667D9B2FA82F24AB1C2F1200701FA53
:1002200002F320FA07F7954047EA030894404FEAA3
:10023000154E230CB8FBFEF71FFA85FC0EFB178842
:1002400043EA084307FB0CF1994209D9EB1807F17F
:10025000FF3080F01B81994240F21881023F2B440D
:100260005B1AA4B2B3FBFEF00EFB103344EA034466
:1002700000FB0CFCA44509D92C1900F1FF3380F0D8
:100280000781A44540F2048102382C4440EA07402B
:10029000A4EB0C0400271EB1D4400023C6E90043A0
:1002A0003946BDE8F0878B4209D9002E00F0EB807B
:1002B0000027C6E9000138463946BDE8F087B3FAA1
:1002C00083F7002F47D18B4202D3824200F2FA809B
:1002D000841A61EB030301209846002EE0D0C6E9A2
:1002E0000048DDE702B9FFDEB2FA82F2002A40F0F0
:1002F0008F80491B4FEA154E1FFA85F80127B1FB85
:10030000FEFC230C0EFB1C1143EA014308FB0CF11D
:10031000994207D9EB180CF1FF3002D2994200F252
:10032000CD808446591AA3B2B1FBFEF00EFB101427
:1003300043EA044408FB00F8A04507D92C1900F152
:10034000FF3302D2A04500F2B6801846A4EB0804A1
:1003500040EA0C409FE7C7F1200CBB4022FA0CFE9C
:100360004EEA030E01FA07F420FA0CF521FA0CF319
:100370004FEA1E482543B3FBF8F92C0C08FB193350
:100380001FFA8EFA44EA034309FB0AF49C4202FA7C
:1003900007F200FA07F10BD91EEB030309F1FF3056
:1003A00080F087809C4240F28480A9F10209734466
:1003B0001B1BADB2B3FBF8F008FB103345EA034456
:1003C00000FB0AFAA24508D91EEB040400F1FF3332
:1003D0006BD2A24569D90238744440EA0940A0FBB7
:1003E0000289A4EB0A044C45C2464B4654D351D073
:1003F000002E69D0B1EB0A0564EB030404FA0CFC8F
:10040000FD40FC404CEA0505C6E90054002747E7DB
:10041000C2F1200320FA03F7954001FA02F021FA15
:1004200003F34FEA154E3843010CB3FBFEF71FFAF6
:1004300085F80EFB173341EA034107FB08F38B42B3
:1004400004FA02F407D9691807F1FF3C2FD28B4256
:100450002DD9023F2944CB1A81B2B3FBFEF00EFB2B
:10046000103341EA034100FB08F38B4207D96918B6
:1004700000F1FF3C17D28B4215D902382944C91A22
:1004800040EA07473BE73746304609E70746E7E6D5
:100490001846FBE64145ABD2B8EB020A69EB0E0207
:1004A00001381346A4E76046E9E7184695E7674632
:1004B000D1E781467CE702382C4447E7ACF1020CD7
:1004C0002B442FE7384608E73746E9E6704700BF78
:1004D00001F0FF01102A2BDB10F0070F08D010F8F5
:1004E000013B013A8B422DD010F0070F42B3F6D1F9
:1004F000F0B441EA012141EA014122F007047FF012
:1005000000070023F0E80256083C85EA010586EA68
:10051000010685FA47F5A3FA87F586FA47F6A5FAA4
:1005200087F68EB9EED1F0BC01F0FF0102F00702B0
:1005300032B110F8013B013A83EA010313B1F8D15B
:100540000020704701387047002D06BF354603383C
:10055000073815F0010F07D1013015F4807F02BF75
:10056000013015F4C03F0130F0BC0138704700BFC6
:1005700070B50E4B0E4D1B682A7806464FF47A7004
:10058000B0FBF2F0B3FBF0F000F0BCF808B90F2EAE
:1005900001D9012070BD0446024631464FF0FF30BC
:1005A00000F058F86E60204670BD00BF4C0100207E
:1005B0000400002008B50B4B1A6842F400721A6060
:1005C0001A6842F480621A601A6842F480721A60F3
:1005D000032000F02DF80020FFF7CAFF04F0A8FE6A
:1005E000002008BD003C0240034A044B11681B7800
:1005F0000B441360704700BF8810002004000020E7
:10060000014B1868704700BF8810002038B50446B9
:10061000FFF7F6FF631C054602D0044B1B781C4411
:10062000FFF7EEFF401BA042FAD338BD04000020C4
:10063000074AD3684FF6FF010B40000243F0BF6347
:1006400000F4E06043F400330343D360704700BF1D
:1006500000ED00E0184BDB68C3F3022330B4C3F1B4
:100660000705042D03F1040428BF0425062C19D91D
:10067000033B4FF0FF349C4022EA04044FF0FF326A
:10068000AA4021EA020101FA03F2224312010028E2
:10069000D2B20ADB00F1604000F5614080F800232F
:1006A00030BC704700242346E8E7044B00F00F00FD
:1006B00003441A7630BC704700ED00E0FCEC00E02B
:1006C000002807DB00F01F0101234009024A8B408C
:1006D00042F82030704700BF00E100E000280DDB49
:1006E000430920330122064900F01F0002FA00F0FE
:1006F00041F82300BFF34F8FBFF36F8F704700BFE8
:1007000000E100E00138B0F1807F0ED2084B10B458
:10071000084C5860F02084F823000022072110467E
:100720009A6019605DF8044B70470120704700BF64
:1007300010E000E000ED00E090F83530022B03D02F
:1007400080234365012070470268052380F8353017
:10075000136823F0010313600020704790F8350000
:10076000704700BF2DE9F04FD1F80080DFF8F4E1C9
:1007700083B0002403E00134102C00F08C800123AE
:10078000A34008EA03029342F5D1D1E9016526F0BE
:1007900010094FEA440C032309F1FF3703FA0CF365
:1007A000012F6FEA030305FA0CF577D9C7681F40DC
:1007B0003D43C560076806F003051F4005FA0CF3CA
:1007C0003B430360F300D6D55F4D002301936B6C70
:1007D00043F480436B646D6C24F0030305F480459F
:1007E00003F18043019503F59C3304F003054FEAC0
:1007F0008509564D019FD3F808C00F2707FA09F75E
:10080000A8422CEA07071FD005F58065A84276D0DC
:100810004F4DA84279D04F4DA8427CD04E4DA842B2
:100820007FD04E4DA84200F082804D4DA84200F08E
:100830008480DFF834C160450CBF4FF0070C4FF0E7
:10084000080C0CFA09F52F439F60DEF80030D54301
:10085000F70354BF2B401343CEF80030DEF80430CA
:10086000B70354BF2B401343CEF80430DEF80830F2
:10087000F70254BF2B401343CEF80830DEF80C309B
:10088000B60204F1010454BF2B401343102CCEF8E0
:100890000C307FF474AF03B0BDE8F08F876807EACF
:1008A000030ACF6807FA0CF747EA0A078760D0F80F
:1008B00004A0C6F300172AEA020AA74047EA0A077B
:1008C0004760C7681F403D43B9F1020FC5607FF420
:1008D00071AF4FEAD40900EB890904F00707D9F892
:1008E0002050BF004FF00F0B0BFA07FB25EA0B0A55
:1008F0000D69BD4045EA0A05C9F820505AE74FF096
:10090000010C0CFA09F52F439EE74FF0020C0CFA8C
:1009100009F52F4398E74FF0030C0CFA09F52F4324
:1009200092E74FF0040C0CFA09F52F438CE74FF0D7
:10093000050C0CFA09F52F4386E74FF0060C0CFA6C
:1009400009F52F4380E700BF003802400000024055
:1009500000080240000C0240001002400014024057
:1009600000180240003C0140001C02402DE9F04FFD
:100970000023DFF83C81DFF83CE1DFF83C91DFF851
:100980003CA102E00133102B6ED0012404FA03F5E0
:1009900005EA0106B542F5D123F0030707F18047C8
:1009A00007F59C3703F00302D7F808B092004FF028
:1009B0000F0C0CFA02FC40450CEA0B0B16D0484514
:1009C00011D0504552D0354CA04253D0344CA042A7
:1009D00054D0344CA04255D0334CA04256D0334C66
:1009E000A04257D0082404FA02F200E00022934506
:1009F00018D1DEF80020F6433240CEF80020DEF8B1
:100A000004203240CEF80420DEF808203240CEF830
:100A10000820DEF80C201640CEF80C60BA6822EAF6
:100A20000C02BA605C000322A2400468D243DE08D4
:100A3000144000EB8606046003F00704376AA40044
:100A40004FF00F0C0CFA04F427EA04043462C46873
:100A50001440C460446824EA050545608468013395
:100A60002240102B826090D1BDE8F08F022404FA5E
:100A700002F2BCE7032404FA02F2B8E7042404FA01
:100A800002F2B4E7052404FA02F2B0E7062404FAFD
:100A900002F2ACE7072404FA02F2A8E7000C0240D5
:100AA000001002400014024000180240001C0240E6
:100AB00000000240003C01400004024000080240E7
:100AC0000369194214BF01200020704702B90904CC
:100AD00081617047436931EA030308BF09048161FA
:100AE000704700BF002800F09F80F8B590F83D30B7
:100AF000044603F0FF02002B00F08F8023682422BD
:100B000084F83D201A6822F001021A601A6842F443
:100B100000421A601A6822F400421A6002F0FAF8E1
:100B200061684B4B99424BD84A4B98427AD922681C
:100B3000494B5568A3FB00639B0C25F03F051D4303
:100B40005560156A013325F03F052B431362D569C3
:100B50004900431EB3FBF1F30133C3F30B0325F448
:100B60004F45042B38BF042325F0FF052B43D361E9
:100B7000D4E907351068216920F0C0002B430343F6
:100B800013609068E568636920F4034020F0FF007B
:100B9000294301439160D168A06921F0FF0103431B
:100BA0000B43D3601168002341F00101202511603F
:100BB0001846236484F83D50236384F83E30F8BD22
:100BC000264B98422ED92268234B5668244FA3FB0C
:100BD00000539D0C26F03F062E434FF4967356604B
:100BE00003FB05F3A7FB0353156AA6689B0925F0D1
:100BF0003F0501332B431362D56925F44F45013876
:100C000025F0FF0596B901EB4101B0FBF1F0013091
:100C1000C0F30B00C0B90123A8E780F83C2004F022
:100C2000A3FB6BE70120F8BD0120704701EB8101B8
:100C300001EB8101B0FBF1F00130C0F30B000028A3
:100C4000E9D040F4404391E740F400438EE700BF11
:100C5000A08601007F841E0083DE1B43FF083D0049
:100C6000D34D6210B0B10268242310B580F83D3036
:100C7000136823F001030446136004F0BFFB002354
:100C8000236484F83C3084F83D301846236384F8AC
:100C90003E3010BD0120704790F83D30202B31D1FF
:100CA000002931D0002A2FD090F83C30012B29D0D8
:100CB00070B4046823680125DB0780F83C5002D437
:100CC00023682B4323602368104E23F400632360C2
:100CD000212380F83D30202380F83E300023036438
:100CE0004285458DC6622268058542F48062416274
:100CF0002260626880F83C3042F4E062184662602C
:100D000070BC704702207047012070470000FFFF51
:100D100090F83D30202B31D1002931D0002A2FD03E
:100D200090F83C30012B29D070B404682368012569
:100D3000DB0780F83C5002D423682B4323602368F0
:100D4000104E23F400632360222380F83D302023DB
:100D500080F83E30002303644285458DC6622268D8
:100D6000058542F4806241622260626880F83C300E
:100D700042F4E0621846626070BC7047022070471F
:100D8000012070470000FFFF704700BF704700BFA1
:100D9000704700BF704700BF704700BF90F83D200C
:100DA000016D38B5034659B9C26C0168012A826CDD
:100DB0002AD0C2F307220A61026D0132026538BDF2
:100DC000016D012926D0016D0229F8D1D2B2222A63
:100DD0002CD0418D89B229BB418D89B20029EED139
:100DE000212AECD10268546824F4E0645460146849
:100DF000202544F400741460016380F83D5080F8AD
:100E00003E10FFF7C9FF38BDD2B20A61026D02324F
:100E1000026538BD826C0168D2B20A61026D01328E
:100E2000026538BD212A07D05B8D38BD0268136882
:100E300043F48073136038BD416A026811F8010BF6
:100E400010615A8D5962013A92B25A8538BD00BF7D
:100E5000704700BF70B53B4B3B4C1B68816B82B049
:100E6000DB08A4FB0323002201921B0A91F83D003A
:100E70000A6803EB8303C3EBC3030193C0B205E02D
:100E8000019B013B019313689B0506D5019B002B39
:100E9000F6D10B6C43F020030B64D1E90D434CB346
:100EA0000025E563FBB11668DD6326F480661660F5
:100EB0004D85256500241C65136823F0010313602C
:100EC00091F83D30602B2AD000F02800282819D056
:100ED0002022002381F83D2081F83E30084605F0AD
:100EE000BFF902B070BD156825F4806515604B85AB
:100EF0002365E1E7FBB11568DC6325F480651560C7
:100F00004C85D7E7136843F001031360136800248E
:100F100043F4806313600C6381F83D00DEE7002337
:100F2000202281F83D20084681F83E300B6405F010
:100F3000BDF902B070BD146824F4806414604B8560
:100F4000BAE700BF4C01002089B5F81470B50368FA
:100F500004465868E56A94F83E2094F83D10D2B2F1
:100F6000102A8CB020D0402A1ED0226CC9B2002A90
:100F700000F0BB805A690026C2F34005002D78D0EE
:100F800085057BD5226C02B19E6994F83D2002F064
:100F90002802282A00F015826FF002010022596110
:100FA00084F83C200CB070BD9E69596911F0010FA6
:100FB00039D1B5F52A0FF5D0B5F12A4FF2D00D078A
:100FC00040F19980850500F1ED81760740F10081BF
:100FD0005D682D05E6D4C1F38005090640F1A181C5
:100FE000460540F19E81002D40F09E8194F83D2001
:100FF000208D94F83E10E56AD2B2C9B2002840F0C4
:101000007883212A00F028844029CBD1222AC9D113
:10101000628D92B2002A00F0408494F83E20402A6B
:1010200040F0B68086E1850562D5E26AB2F52A0F06
:1010300000F0E281E26AB2F12A4F04BF0822E262C4
:1010400094F83E20402A00F0D0812269B2F5804F0A
:1010500000F09081226D002A00F0D181226D012ADA
:10106000A0D1626CD21102F0060242F0F1021A61C4
:1010700098E7D60602D5860500F1D88001F0F70181
:101080002129C2F380054ED0510640F18B804205E4
:1010900040F18880002D40F0888094F83D10628DEA
:1010A00092B2C9B2002A3FF47DAF626A1B69137025
:1010B000638D626A013B9BB26385638D01329BB293
:1010C0006262002B7FF46EAF2A297FF46BAF226837
:1010D0005368222523F4806328215360204625632A
:1010E00084F83D1005F070F85CE79E695A6943E7A3
:1010F0000D073FF56AAF8D077FF567AF85057FF573
:1011000064AF94F83E20E06A256B94F83D102229E4
:10111000D2B200F00982002209925A6909929B69B1
:101120000993099B3EE7120627D5460525D53DBB09
:1011300094F83D00628D92B2C0B2002A3FF432AF03
:10114000656A15F8012B1A61628D6562013A92B2E7
:101150006285628D92B2002A7FF424AF29287FF441
:1011600021AF5A68282522F480625A602046216304
:1011700084F83D5005F04EF814E7002D3FF412AF0F
:1011800080057FF50FAF628D92B2002A3FF40AAF5F
:10119000626A12F8011B1961638D6262013B9BB2A6
:1011A0006385FFE6002D3FF4FDAE86057FF5FAAEC0
:1011B000628D92B2002A3FF4F5AE626A1B69137029
:1011C000638D626A013B9BB2013263856262E9E62C
:1011D0005A6816053FF5E6AE4D06C1F3800240F1B0
:1011E000AF80410540F1AC80002A40F0AC8094F81B
:1011F0003D1022297FF4D6AE618D89B2032940F2D9
:10120000EA82626A1B691370638D626A013B9BB25A
:101210006385638D9BB20132032B62627FF4C2AEA1
:101220002268536823F480635360BBE694F83D1052
:101230005A6822F4E0625A600B955A690B921A6858
:1012400042F001021A600B9A1A6822F480621A6056
:101250005A68CDB2110521D505F0F702222A00F017
:101260003E81606B0268526892B26285628D92B272
:101270001AB1226C42F0040222645A6822F400621D
:101280005A60FFF76BFA012808D0606BA44B036526
:10129000FFF752FA10B1606B036D9847638D9BB2F4
:1012A00013B323685A6952070AD5626A1B6913701F
:1012B000628D616A2368013A92B20131628561628E
:1012C0005A69560609D5626A1B691370638D626A92
:1012D000013B9BB2013263856262638D9BB21BB19D
:1012E000236C43F004032364236C002B40F09580AF
:1012F0002A2D00F0598194F83D30282B00F0DD8034
:10130000236B222B02D0222D7FF44CAE002320220F
:101310002363204684F83D2084F83E3004F054FFD7
:1013200040E6002D3FF43EAE81057FF53BAE102A2E
:1013300000F0428120460CB0BDE87040FFF72EBDA2
:10134000002A3FF42FAE86057FF52CAEE06A628D51
:10135000616A92B2042A00F08281628D92B2032AFD
:1013600000F08481628D92B2022A00F0FC811B6938
:101370000B7025E794F83D20212A626C16BF42F0DD
:10138000010202F0FE02D2B21A61626B002A00F082
:10139000E880D26B002A00F0E4805A6842F40062D0
:1013A0005A60FFE5626C616BD2B21A61002900F0ED
:1013B0009180CA6B002AF0D1A26BD26B002AECD1CB
:1013C000F0E55A6822F480625A606FEA96013306AB
:1013D0004FF0000301F0010154BFA289228B84F871
:1013E0003C302046FFF7D4FCDCE5226D7AB9626C14
:1013F00002F0FE021A61D5E50122E26220E6626C8B
:10140000D21102F0060242F0F0021A61CAE5626CE3
:1014100042F00102D2B21A61C4E594F83D1094F88A
:101420003E202368D2B2102AC9B200F09F80402A21
:1014300000F09C8001F02802282A00F0E3805A681E
:10144000100507D4602905D02021002284F83D1022
:1014500084F83E20002222635A6812F4006200F0F1
:1014600091805A68606B22F400625A6090F83530BF
:10147000012B00F00A812A4B0365FFF75DF950B19B
:101480002268606B1368016D23F00103202513604F
:1014900084F83D508847236C180704D022685368AD
:1014A00023F4E063536094F83D30226C5107DBB2C3
:1014B0007FF578AD282B7FF475AD1A4BE3622022BF
:1014C00000232363204684F83D2084F83E30FFF754
:1014D00061FC67E5A26B002A7FF46BAF62E5A06B4D
:1014E0000268526892B26285628D92B21AB1226C21
:1014F00042F0040222645A6822F400625A60FFF744
:101500002DF901283FF4CAAEA06B054B0365FFF728
:1015100013F900283FF4C2AEA06B036D9847BDE6F7
:10152000550E00080000FFFF216D11B9402A00F0A0
:10153000E480226D22B92169B1F5404F00F0E480CA
:10154000628D92B2002A62D102925A6902929A691D
:101550000292029A1A6842F400721A60002323650C
:1015600020E5A26B002A7FF428AF1BE522297FF437
:1015700061AF1A6822F400621A605A6815053FF5D7
:1015800069AF61E794F83D10602900F09C805A69CA
:10159000550605D5626A1B691370636A013363627D
:1015A000204604F05DFE76E728222363204684F877
:1015B0003D2004F009FE9EE6E16A94F83D20212AD0
:1015C0007FF4F0AC628D92B2002A7FF4E1AD08297D
:1015D00005D0202903D011F5803F40F0DC815A6806
:1015E00022F4E0625A601A68002142F40072202559
:1015F0001A602046216384F83D5084F83E10FFF7BE
:10160000C3FBCFE40021216384F83D2024E7628DF1
:1016100092B2012A00F08680628D92B2022A00F016
:1016200042811A6842F480621A605A6811050ED528
:1016300010F5803F07D001381F2808D8AB4A22FA9E
:1016400000F0C20703D55A6842F480525A60002263
:1016500008925A6908929B690893089B7EE75A682A
:1016600022F480625A601B690B70A9E55A6804284D
:1016700022F480625A603FF47AAE02283FF477AEDB
:101680001A6822F480621A6071E6A06B984B0365B9
:10169000FFF752F800283FF4FEAE23685A6952065D
:1016A00006D5626A1B691370626A2368013262623E
:1016B0001A68A06B22F0010220211A60036D84F8E1
:1016C0003D109847E7E6202184F83D1022645A69CE
:1016D000560606D5626A1B691370626A2368013276
:1016E00062621A6822F001021A60204604F0DEFDF0
:1016F000D1E6212A3FF48CAC86E400915A6900922D
:101700009B690093009B4DE401925A6901929A698A
:101710000192019A1A6842F480721A60236D0133B3
:1017200023653FE410F5803F00F00481082800F0B5
:10173000F180202800F0EE80122D00F0E8801028C3
:1017400005D86C4A22FA00F0C20700F11F811A681E
:1017500022F480621A60002205925A6905929B6900
:101760000593059BFAE601281A6871D010286FD0FE
:10177000042800F0FC80022800F0F98042F4007296
:101780001A601B690B70638D626A2168013B9BB212
:1017900063850B69511C61625370638D2168626AB5
:1017A000013B9BB263854B68013223F440732020D8
:1017B00062624B6084F83D0094F83E30402B00F0AC
:1017C000CD800022122384F83E2020462363FFF7B9
:1017D000DDFAFFF7E7BBE06A02283FF4E3AB01293B
:1017E0003FF6E0AB44490A920A6846F2A811B2FB00
:1017F000F1F202EB82020A920A9A013A0A920A99DB
:10180000002900F0EA801A6812F40072F4D1196815
:10181000606A21F480611960596821F4E0615960BF
:101820001B690370638D616A013B9BB22020638555
:1018300084F83D0094F83E300131402B6162C1D103
:1018400084F83E2020462263FFF702FBFFF7AABB85
:1018500022F480621A6094E7082D05D0202D03D071
:1018600015F5803F40F0A8805A6822F4E0625A6083
:1018700019680022202041F400711960226384F865
:101880003D0094F83E3084F83E20402B204600F086
:101890008F80FFF779FAFFF785BB5A6822F48062E0
:1018A0005A60FFF77FBB102828D91A6822F480629B
:1018B0001A601A6842F400621A605A6815050DD55C
:1018C00010F5803F06D001381F2807D8074AC240CC
:1018D000D00703D55A6842F480525A60002207921A
:1018E0005A6907929B690793079B37E681800080BE
:1018F000550E0008140001004C010020454AC2406A
:10190000D607D2D51A6842F480621A60D5E701285A
:101910003FF41DAF1A68002122F480621A6006911C
:101920005A6906929A690692069A1A6842F40072F7
:101930001A6013E61A6822F480621A605A6812F478
:10194000006218D01A68002122F480621A600391A4
:101950005A6903929B690393039BFFE5002384F874
:101960003E3020462363FFF773FAFFF71BBB42F4B8
:1019700080621A6005E704925A6904929A69049297
:10198000049A1A6842F400721A60E7E51A6842F491
:1019900080621A60DFE65968112621F4E061202593
:1019A00059602046266384F83E2084F83D5070E755
:1019B000FFF7F2F9FFF7F6BA5A68112622F4E0624F
:1019C000002520215A602046266384F83E5084F882
:1019D0003D10FFF7D9F9FFF7E5BA226C606A42F0D3
:1019E000200222645A6822F4E0625A601B69037084
:1019F000638D626A013B9BB2013220206385626283
:101A000084F83D00204684F83E1004F029FCFFF7DE
:101A1000C9BA00BF14000100F8B503685D695A68CF
:101A200090F83E10CEB2E90504469C46C5F340202E
:101A30007ED5110ACF077BD56FF480725A610028DA
:101A400040F08580680540F1DA800127628D94F8C6
:101A50003D10206B202E92B2C9B200F0AF806FF41F
:101A60008062102E47F004075A6101D0402E03D146
:101A70001A6842F400721A602E059C4605D56FF470
:101A8000006347F00807CCF81430236C1F43276429
:101A900094F83D2094F83E30DBB2102BD2B268D0DF
:101AA000402B66D002F02803282B00F08280DCF85F
:101AB00004301D0507D4602A05D02022002384F8B5
:101AC0003D2084F83E3000232363DCF8043013F417
:101AD00000635BD0DCF80430606B23F40063CCF867
:101AE000043090F83530012B00F0AB80824B036559
:101AF000FEF722FE50B12268606B1368016D23F07F
:101B000001032025136084F83D508847236C1B0790
:101B100004D02268536823F4E063536094F83D30A6
:101B2000226C5707DBB202D5282B00F0A880F8BD45
:101B300010B1110ACF071AD4C5F380271FB1D10500
:101B4000F5D5002782E72905F1D5110A08E003271A
:101B50006FF4007268055A613FF578AF2A0504D525
:101B6000CB078CD4002FE2D023689C468DE7022758
:101B7000EEE7222A96D1DCF8003023F40063CCF89B
:101B80000030DCF804301E059DD496E794F83D2023
:101B9000602A3BD0DCF814305A0606D5636ADCF8BC
:101BA00010201A70636A01336362204604F058FB08
:101BB000ACE70022226384F83D3086E7CAB901F021
:101BC000F702212A03D0282913D1212811D194F812
:101BD0003D20E16A0829D2B25ED020295CD0212ABA
:101BE00073D06FF480625A612D05BBD5D4F800C064
:101BF00045E76FF4806247F004075A613CE72A0525
:101C00004FF001073FF53BAF9C463EE7202284F8AA
:101C10003D202364DCF81430590608D5636ADCF8EB
:101C200010201A70636AD4F800C001336362DCF8D4
:101C3000003023F00103CCF80030204604F036FBDE
:101C400064E7A06B2C4B0365FEF776FD00283FF49C
:101C50005DAF23685A69500606D5626A1B69137026
:101C6000626A2368013262621A68A06B22F0010284
:101C700020211A60036D84F83D10984746E71F4BFA
:101C8000E362202200232363204684F83D2084F869
:101C90003E30FFF77FF8F8BD282AA0D1174AE2624C
:101CA0005A686FF4806122F4E0625A6059611A68E0
:101CB0000A401A60002120232163204684F83D3029
:101CC00084F83E10FFF766F88EE70C49E1622020A9
:101CD0000021226384F83D0084F83E105A686FF4B6
:101CE000806122F4E0625A6059611A680A401A6001
:101CF000204604F08FFA77E7550E00080000FFFF3A
:101D0000006C7047E8B138B5D0E9003182684CF614
:101D1000CC45044645F255501D60186059609A60E4
:101D2000FEF76EFC054604E0FEF76AFC401B302817
:101D300009D82368D8680028F6D14AF6AA221A6082
:101D400038BD01207047032038BD00BF03684AF644
:101D5000AA221A6000207047F0B58BB0002800F06E
:101D6000838090F8BD330568044603F0FF0233B367
:101D70002846032384F8BD33EB6B254613F48073A8
:101D800008BF236101F08EFC55F810CB2F460FCF12
:101D90006E460FC60FCF0FC697E8030086E8030014
:101DA000261D604696E80E0001F08EFB074660B1E6
:101DB000022384F8BD33012528460BB0F0BD80F81E
:101DC000BC2303F0B7FD2068D3E70146206801F08B
:101DD00071FC606860B339463A464FF0010CC1EBC4
:101DE000C10304EB83034F1C83F83C10A3F842109B
:101DF000F9B2814283F83DC083F83F20C3E9112244
:101E00001A65ECD300221146C2EBC20304EB830334
:101E1000571C83F8FC21FAB2824283F8FD1183F843
:101E2000FF11C3F80412C3F80812C3F81012EBD361
:101E30000FCD6F46D4F800C00FC70FCD0FC795E880
:101E4000030087E80300604696E80E0001F04AFCB4
:101E500005460028ACD1012384F83800206884F8B6
:101E6000BD3302F025F8A7E7012528460BB0F0BDE9
:101E700090F8BC33012B1AD0826A036801218A4290
:101E800010B580F8BC130AD00446184601F002FCD5
:101E9000206801F0FFFF002084F8BC0310BD8269B8
:101EA0008A42F1D09A6B42F480329A63ECE70220C6
:101EB000704700BF2DE9F04F066889B004463046F0
:101EC00002F036F810B109B0BDE8F08F0546206881
:101ED00001F0FCFF0028F6D0206801F0F7FF10F0B9
:101EE000020F20681EBF436903F00203436101F043
:101EF000EDFF10F0100F206811D0836923F010035C
:101F00008361376AC7F34343022B07F00F085DD0A4
:101F1000062B00F08382836943F01003836101F094
:101F2000D5FF10F4002F206840F0C68101F0CEFFED
:101F300010F4802F206840F00A8101F0C7FF0028CC
:101F400064DB206801F0C2FF010530D4206801F095
:101F5000BDFFC3046ED4206801F0B8FF10F4005F29
:101F6000206840F0DD8001F0B1FF070700F1CF806D
:101F7000206801F0ABFFC60200F1BF80206801F0CD
:101F8000A5FF850200F1AF80206801F09FFF4000AF
:101F900000F1A080206801F099FF410793D52368E4
:101FA0005D686A070DD45A682A435A608BE7D6F8F1
:101FB0000838DA0726D42068436903F400634361D4
:101FC000C5E7204603F054FD2368ECE747F6F073BD
:101FD0001F42A0D0C8EBC80804EB8808C7F30A1753
:101FE000D8F808123A46304601F0D8FED8F8081260
:101FF000D8F81422206839443A44C8F80812C8F8BE
:10200000142288E7204603F00BFDD4E794F8F4137C
:10201000D6F80428012922F00102C6F8042800F0AD
:10202000D181204603F014FD2068436903F000438A
:10203000436187E706F500677B68206823F00103AA
:1020400010217B6001F03AFC6068F8B106F510637E
:102050004FF67F3199601A6822F400121A601A68EC
:1020600042F000621A60C3F80812D3F8002222F48A
:102070000012C3F80022D3F80022013542F00062BA
:102080008542C3F8002203F12003E3D1FB69226BF0
:1020900043F00113FB61002A00F08981D7F88430F6
:1020A00043F00B03C7F884307B6C43F00B037B6475
:1020B000D6F80038217C206823F4FE63C6F8003887
:1020C00004F5717201F048FF2068436903F48053FE
:1020D000436141E7204603F0C7FC2068436903F0F1
:1020E0008043436157E72046002103F0B5FC206898
:1020F000436903F40013436147E72046002103F0DE
:10210000AFFC2068436903F48013436137E720463E
:1021100003F06CFC2068436903F00803436128E77F
:1021200001F00AFF206801F0DBFBE060256800F0A9
:10213000EBFD227B0146284601F030FA204603F0F1
:1021400059FC2068436903F4005343610BE701F035
:10215000C9FE80462068B8F1000F3FF4EEAE06F5E8
:102160001063CDE90365A3464FF0000A1E4607E061
:102170005FEA58080AF1010A0BF11C0B00F0D3804A
:1021800018F0010FF4D05FFA8AF9494601F0BCFE5D
:102190000546E80717D5039B2169D3F834080127C2
:1021A0000AF00F0207FA02F220EA020006EB4A12D6
:1021B000C3F834081346B9429F6000F00A814946CB
:1021C000204603F009FC290703D506EB4A13082231
:1021D0009A60EA0603D506EB4A1310229A606B0652
:1021E00003D506EB4A1340229A60AF0703D506EBEE
:1021F0004A1302229A6027682D063846B8D5DBE9D3
:1022000014138B42B4D807F5106202EB4A12104641
:10221000DBF844200590CD1A954280690697AC46BC
:1022200028BF944680B20CF1030CB0EB9C0F31D365
:102230008B4233D291B3CDF81C80DBF84810DDF827
:10224000148007E0DBF850509D4240F22B81DBF810
:102250004420ED1A954228BF1546237C00934A4638
:10226000ABB2384601F084FDD8F81820DBF84810EE
:10227000DBF8543029442B4492B20335B2EB950F6E
:10228000CBF84810CBF85430DCD2DDF81C8027683E
:10229000DBF85010994238463FF66AAF069B0120A2
:1022A000D3F834280AF00F0100FA01F122EA010202
:1022B0003846C3F834285BE701F00CFE0746206877
:1022C000002F3FF433AE4FF0000806F5306A04E00B
:1022D0007F0808F101083FF429AEFB07F8D55FFA43
:1022E00088FB594601F006FE814619F0010F20686F
:1022F00038D119F0080F19D119F0100F03D00AEBDB
:10230000481310229A6019F0200F03D00AEB4813EB
:1023100020229A6019F4005FDAD00AEB48134FF4D8
:1023200000529A60D4E7DDE9036506E64FEA4812F9
:102330000AEB02030821996000F530631344026C34
:102340005F489968824257D90A0402D54FF4004287
:102350009A60204603F030FB2169012900F0A68035
:102360002068C9E74FEA48130AEB0302216900F528
:10237000306E4FF0010C7344C2F808C00129D0F848
:1023800040C09A683DD04F498C455AD0B8F1000FF3
:1023900007D1D4F8103223B904F57172414601F027
:1023A000DBFD2046594603F00DFB2068A1E77B6961
:1023B00043F4005343F02B037B613B6943F00B0371
:1023C0003B6175E6002184F8F413204600F0EEF935
:1023D0002AE6DBE911231344CBF84830BAF1000FA9
:1023E0007FF4EDAE236D002B7FF4E9AE04F571723E
:1023F000206801F0B1FDE2E6204603F0DDFA206836
:102400007AE7110724D52E498C457FF672AF120466
:102410007FF56FAF4FF400429A606AE7082204F537
:1024200071713046C8EBC80801F0B8FC04EB8802B3
:10243000C7F30A13D2F8141220680B44C2F81432FE
:1024400069E51104E6D49106ABD520229A60A8E78D
:10245000910631D412F0280F7FF44BAF18498C4508
:1024600001D91204D6D4C8EBC80204EB8202196960
:10247000D2F80432C1F31201A3EB010CD2F8081216
:10248000C2F814C20B44C2F80832B8F1000F88D168
:10249000D4F81032002B84D104F57172012101F0BF
:1024A0005BFD7EE7DDF81C802768F7E604F57172B6
:1024B000206801F051FD53E720229A6019E700BF20
:1024C0000A30544F0A31544F90F8BC23012A0DD0E2
:1024D00010B50446012284F8381080F8BC23006847
:1024E00001F0C8FC002084F8BC0310BD0220704736
:1024F000F8B501F00F05C5EBC504C5EBC506090627
:102500004FEA840400EB86061ED404F5FE7400270F
:10251000011986F8FD714C780D708A60CB7004B19A
:10252000CD80022B04BF00230B7190F8BC33012B2C
:1025300010D00123044680F8BC33006801F0DCF9B8
:10254000002084F8BC03F8BD3C340127011986F84B
:102550003D70E0E70220F8BD01F00F0238B5090632
:10256000C2EBC203C2EBC2044FEA830300EB840454
:1025700015D403F5FE73C118002584F8FD510A70C7
:1025800090F8BC33012B14D00123044680F8BC33EF
:10259000006801F0F5F9002084F8BC0338BD3C3335
:1025A000C118012584F83D500A7090F8BC33012B06
:1025B000EAD1022038BD00BF38B501F00F05C5EBE8
:1025C000C50400EB84040021C4F80822C4F81412E6
:1025D00084F8FD11C4F8103284F8FC5103691C2101
:1025E00001FB0501012B08BFC4F80C2201F5FE71A7
:1025F0000068DAB21DB101F023FA002038BD01F005
:1026000031FB002038BD00BF01F00F01C1EBC1015B
:1026100000EB8101D1F81402704700BF70B501F0E2
:102620000F05C5EBC50400EB840401210026A2645C
:1026300084F83D10236584F83C50666503691C21CD
:1026400001FB0501012B08BFE2643C310068DAB2EE
:102650001DB101F0F5F9002070BD01F003FB002071
:1026600070BD00BF38B5436801F00F059D421FD80B
:102670000B061FD4C1EBC1031C2404FB010100EBBA
:102680008303002201F5FE7183F8FD2101230D7003
:102690008B7090F8BC239A421ED0044680F8BC335D
:1026A000006801F08FFBCDB1002084F8BC0338BD79
:1026B000012038BDC5EBC5031C2101FB050100EB62
:1026C000830301223C3183F83D2001230D708B7080
:1026D00090F8BC239A42E0D1022038BD04F5717213
:1026E000217C206801F038FCDEE700BF38B5436884
:1026F00001F00F029A4221D8C2EBC203C2EBC2041E
:1027000009064FEA830300EB840419D403F5FE7332
:10271000C118002584F8FD5100250A708D7090F8CD
:10272000BC33012B18D00446012380F8BC33006869
:1027300001F074FB84F8BC53284638BD012038BD35
:102740003C33C118012584F83D5000250A708D7076
:1027500090F8BC33012BE6D1022038BD30B40568B7
:1027600012046C6AC1B1AB6A013904EB13440BD09B
:10277000002303F1400005EB800001334068DBB229
:102780008B4204EB1044F4D3403105EB8101144338
:102790004C60002030BC70471443AC62002030BC59
:1027A000704700BF0368002059627047704700BF40
:1027B000002800F032812DE9F0410368DD0782B086
:1027C00004462FD5AC498A6802F00C02042A00F0B6
:1027D000EA808A6802F00C02082A00F0E080636850
:1027E000B3F5803F00F0E980B3F5A02F00F07881C9
:1027F000A14D2A6822F480322A602A6822F48022BD
:102800002A60002B40F0DE80FDF7FAFE064605E068
:10281000FDF7F6FE801B642800F2F2802B689B0314
:10282000F6D423689F0775D41A0715D56369002B62
:1028300000F0A580914B904D01221A60FDF7E0FE5B
:10284000064605E0FDF7DCFE801B022800F2D8807A
:102850006B6F9B07F6D5236858073BD5864A136CE8
:1028600013F0805340F0DB800193136C43F08053EE
:102870001364136C03F080530193019B0126804D78
:102880002A68D10540F1AC80A368012B00F0C98013
:10289000052B00F02F81784D2A6F22F001022A6764
:1028A0002A6F22F004022A67002B40F0BF80FDF758
:1028B000A7FE41F28837804606E0FDF7A1FEA0EBB7
:1028C0000800B84200F29C802B6F9807F5D4002EC8
:1028D00040F0DC80A069C8B1674DAA6802F00C0224
:1028E000082A00F0D980674A00210228116000F010
:1028F0000B81FDF785FE2C46054604E0FDF780FEC2
:10290000401B02287CD823689B01F7D4002002B02A
:10291000BDE8F081584A916811F00C0F24D09168FD
:1029200001F00C0108291CD0E368002B00F0928014
:10293000554B514D01221A60FDF762FE064604E038
:10294000FDF75EFE801B02285AD82B689807F7D542
:102950002B68226923F0F80343EAC2032B60236843
:1029600062E752685602DFD4434A126895074BD596
:10297000E268012A48D0012002B0BDE8F0813F4A58
:102980003D4D1360FDF73CFE064604E0FDF738FEC2
:10299000801B022834D86B6F9F07F7D45BE74A6827
:1029A00050027FF51CAF344A126891037FF53AAFAD
:1029B0006268002A7FF436AFDDE72F4A136843F4DC
:1029C00080331360FDF71CFE2B4D064604E0FDF737
:1029D00017FE801B642813D82B689A03F7D520E7CD
:1029E0002A6842F480722A60FDF70AFE07462B68C7
:1029F000DA053FF549AFFDF703FEC01B0228F6D903
:102A0000032002B0BDE8F0811B4920690A6822F06A
:102A1000F80242EAC0020A6006E701207047002679
:102A20002DE7154A136F43F001031367FDF7E8FD27
:102A3000114D804641F2883705E0FDF7E1FDA0EB3E
:102A40000800B842DCD82B6F9B07F6D5002E3FF468
:102A500041AF1BE00C4A084D1360FDF7D1FD06465F
:102A600004E0FDF7CDFD801B0228C9D82B6899072B
:102A7000F7D42368D8E600BF00380240800E4742F2
:102A8000007000406000474200004742354A136C26
:102A900023F0805313641DE701283FF46DAF6B688A
:102AA000E26903F4800191427FF465AF226A03F08A
:102AB0003F0191427FF45FAF47F6C072616A1A40EE
:102AC0008A427FF458AFA26A03F4403191427FF406
:102AD00052AFE06A03F07063181A18BF01204BE789
:102AE000204B1A6842F480221A601A6842F480323D
:102AF0001A6067E71B4B1A6F42F004021A671A6FDD
:102B000042F001021A6791E7FDF77AFD064605E0FB
:102B1000FDF776FD801B02283FF672AF2B68990106
:102B2000F6D4D4E90736D4E90902E16A0D4C3343FF
:102B300043EA8013520843EA0163013A0A4943EA2F
:102B4000024301226B600A60FDF75AFD054605E06D
:102B5000FDF756FD401B02283FF652AF23689A014D
:102B6000F6D5D3E60038024060004742154908B563
:102B70008B6803F00C03082B01D0134808BD4A688A
:102B80004B6813F4800302F03F0210D149680E48ED
:102B9000C1F38811A1FB0001FDF71AFB094B5B682B
:102BA000C3F3014301335B00B0FBF3F008BD4B6896
:102BB0000548C3F38813A3FB00010023FDF708FBBE
:102BC000ECE700BF003802400024F40060B1494A3D
:102BD000136803F00F038B4208D2CBB21370136853
:102BE00003F00F038B4201D00120704703682DE9E9
:102BF000F0419D0714D55C0704D53F4CA26842F410
:102C0000E052A2601A0704D53B4CA26842F460422D
:102C1000A260394C8568A26822F0F0022A43A260C3
:102C2000DF0704460D4622D54268012A57D0931E7D
:102C3000012B314B1B6859D9990725D52E4EB36806
:102C400023F003031343B360FDF7DAFC41F2883746
:102C5000804605E0FDF7D4FCA0EB0800B84243D85D
:102C6000B368626803F00C03B3EB820FF2D1214A20
:102C7000136803F00F03AB4209D9EBB2137013686A
:102C800003F00F03AB4202D00120BDE8F0812368BE
:102C90005A0706D51849E0688A6822F4E0520243D0
:102CA0008A601B0712D4FFF761FF134B134C9B681C
:102CB0001349144AC3F30313E35C20FA03F30868CF
:102CC0001360FDF755FC0020BDE8F0810A4A216938
:102CD000936823F4604343EAC1039360E3E7064B40
:102CE0001B689E03AAD4CFE70320EDE79801A5D483
:102CF000CAE700BF003C024000380240C49B000805
:102D0000080000204C010020014B1868704700BFEC
:102D10004C010020044B054A9B680549C3F38223FC
:102D20000868D35CD840704700380240D49B000844
:102D30004C010020044B054A9B680549C3F342330C
:102D40000868D35CD840704700380240D49B000824
:102D50004C01002000283BD090F85120002370B592
:102D600002F0FF010446836262B31846D4E90135DC
:102D7000D4E903212B4313436269E569266A0B43B7
:102D80001343A26921682B43022584F85150334331
:102D900002F400750E682B43120C656A02F00402FF
:102DA00003432A4326F040060E600B604A60CB695D
:102DB000002223F400630125CB611046626584F88C
:102DC000515070BD80F8501002F03CFBA06ACDE776
:102DD0000120704700285CD0F8B590F83D300446DB
:102DE00003F0FF02BBB322683A4EA569E068616850
:102DF000022384F83D30B24213684CD0B2F1804FC8
:102E000058D0A6F57C46B2422AD006F58066B2427A
:102E100026D006F58066B24222D006F57846B24248
:102E20001ED006F57056B24213D006F58066B24247
:102E30000FD006F58066B2420BD0A6F59836B242A6
:102E400007D006F58066B24203D006F58066B2422E
:102E500038D1266933E080F83C2002F029FBC2E734
:102E6000A6681D4F23F070033343266923F4407393
:102E7000334323F080032B43BA421360D062916244
:102E800001D16369136301235361002084F83D304D
:102E9000F8BD01207047A768266923F070033B4303
:102EA00023F44073334323F080032B431360D06239
:102EB0009162E6E7A768266923F070033B4323F499
:102EC0004073334323F080032B431360D06291623D
:102ED000D9E700BF00000140000401400368DA6840
:102EE00042F00102DA609A6802F00702062A03D073
:102EF0001A6842F001021A6000207047704700BF54
:102F0000704700BF704700BF704700BF03681A6971
:102F1000910710B5044602D5DA6892075FD41A69A2
:102F2000500702D5DA68510746D41A69120702D54C
:102F3000DA6810072ED41A69D20602D5DA68D006EC
:102F400018D41A69D10702D5DA68D2075DD41A6994
:102F5000100602D5DA6811065FD41A69520602D546
:102F6000DA68500661D41A69910602D5DA689206C9
:102F700043D410BD6FF010021A61DB69082213F40C
:102F8000407F2277204664D0FFF7BAFF00222368F3
:102F90002277D6E76FF008021A61DB6904229907ED
:102FA0002277204652D1FFF7A9FF2046FFF7AAFF5C
:102FB000002223682277BEE76FF004021A619B6942
:102FC000022213F4407F227720463CD1FFF796FF80
:102FD0002046FFF797FF002223682277A5E76FF0CE
:102FE00002021A619B6901229B07027725D0FFF735
:102FF00087FF00222368227791E76FF020022046A6
:103000001A61BDE8104000F071B86FF001021A615A
:10301000204603F017F8236899E76FF080021A61E1
:10302000204600F065F8236897E76FF040021A61C8
:103030002046FFF769FF236895E7FFF75FFF20460B
:10304000FFF760FFD5E7FFF75BFFC4E7FFF758FF27
:10305000AEE7FFF753FF2046FFF754FF96E700BFA8
:1030600090F83C30012B3AD00368022270B480F80B
:103070003D205A680E681B4D9C6822F07002324356
:10308000AB424FF0010680F83C605A6019D0B3F1B2
:10309000804F16D0144A934213D002F580629342B7
:1030A0000FD002F5806293420BD002F57842934232
:1030B00007D002F57052934203D0A2F594329342A6
:1030C00004D14A6824F0800414439C600023012248
:1030D00080F83D2080F83C3070BC184670470220D4
:1030E000704700BF0000014000040040704700BF6F
:1030F000704700BF002800F0938090F8393070B519
:1031000003F0FF020446002B00F085802368266947
:10311000242284F83920D86820F40050D4E902250C
:10312000D8601969E06921F4405129431961D968CF
:103130006569324321F416412A4321F00C01024310
:103140000A43DA605A69A16922F440720A43B0F571
:10315000004F5A61364A34D0934263D002F5806200
:1031600093425FD0FFF7D6FD6368324D1922A0FB72
:1031700002019A009B0FFDF72BF8A5FB00214909DE
:10318000642202FB1102120132322368A5FB020203
:10319000090101EB52129A601A6922F490421A61F5
:1031A0005A6922F02A025A61DA680025202142F485
:1031B0000052DA602846E56384F8391084F83A1042
:1031C00070BD934231D002F5806293422DD0FFF75B
:1031D000A1FD6268002692184FF0190146EB060324
:1031E000A0FB0101FCF7F4FF124E2368A6FB0021AF
:1031F0004D09642202FB1502D2003232A6FB0212F4
:10320000520902F00701520001EB051102F4F872B5
:103210000A449A60C0E780F8382002F087F975E721
:1032200001207047FFF786FD9EE7FFF783FDD0E79B
:10323000001001401F85EB5190F83930202B18D138
:10324000C9B1C2B190F83830012B12D030B400238C
:103250000568C2842124C36380F83940EC680162A8
:1032600044F08004828480F838301846EC6030BC2A
:103270007047022070470120704700BF90F83A3035
:10328000202B20D109B302B390F83830012B1AD08B
:1032900030B400230468C2852225C36380F83A5005
:1032A000E568828545F48075816280F83830E56094
:1032B000626942F001026261E26842F0200218464F
:1032C000E26030BC7047022070470120704700BFA9
:1032D00010B584680169836A0268B4F5805F20D004
:1032E0005C1C52688462C9B91A70C38D013B9BB2E1
:1032F000C3858BB90268D16821F02001D160D16803
:1033000021F48071D1605169202421F001015161C3
:1033100080F83A4002F0B0FD002010BD02F07F02BC
:10332000E2E7526829B9C2F3080223F8022B83624C
:10333000DBE7D2B223F8012B8362D6E703681A6871
:1033400070B51607DD685969044646D011F00101D1
:103350004CD0D00705D5EE0503D5E06B40F0010059
:10336000E063500774D529B1E06B960740F0020086
:10337000E06371D4160703D5A80672D4002970D172
:10338000E16B002931D0960601D5A80672D45D699B
:10339000E16B090702D415F0400578D0DA6822F411
:1033A0009072DA605A69202122F001025A6184F891
:1033B0003A105A69520659D55A69606B22F0400298
:1033C0005A61002852D03A4B0365FDF7B5F960B158
:1033D000606BBDE87040036D1847910609D5AE06D5
:1033E00007D590F83A30222B4DD070BD15F4907F60
:1033F000AFD116060ED45106F7D56A06F5D5DA68B0
:10340000202122F04002DA60204684F8391002F0D0
:10341000EFFC70BD2806EED594F83920212AE4D1BE
:10342000A168226AB1F5805F36D0511C2162127802
:103430005A60E28C013A92B2E284002AD5D1DA686D
:1034400022F08002DA60DA6842F04002DA6070BD91
:1034500090078FD500298DD0E06B40F00400E06329
:1034600088E7E16B41F00801E16389E7204602F05B
:1034700047FD70BD94F83A20222A88D12046FFF7F4
:1034800027FF236883E7BDE87040FFF721BF204690
:1034900002F036FDE56370BD11882069C1F30801B3
:1034A000596010B902322262C3E701322262C0E7DA
:1034B000B534000808B5836B0022DA851846DA8433
:1034C00002F01EFD08BD00BF84B030B4089D03ACFF
:1034D000012D84E80E0032D1836B0F9A23F48033E0
:1034E0008363C36823F4840323F04003C360C36889
:1034F000012A23F44013C36044D0274B01E0013B71
:1035000045D00269002AFADA0369234A43F001032D
:10351000036101E0013A3AD0036913F00103F9D1E4
:10352000069A012A07D1826842F006028260826808
:1035300042F02002826030BC184604B07047C26876
:10354000154B42F04002C26001E0013B21D002690C
:10355000002AFADA0369104A43F00103036101E02B
:10356000013A16D0036913F00103F9D10C9A22B97C
:10357000826B42F480328263D2E7826B22F4803223
:103580008263CDE7C36843F48013C360B5E70323C8
:10359000C6E70323EAE700BF400D0300022A0AD072
:1035A0004FF41051C26822F47052C260C3680B43DA
:1035B000C360002070472D4B2D4A0B44934243D9E2
:1035C0002C4B2D4A0B4493423BD9A1F574032B4A53
:1035D000A3F5105393423AD9A1F1837302F5C33294
:1035E000A032A3F5E743934234D9254B254A0B4437
:1035F000934232D9244B02F5922202F578720B44A1
:1036000093422DD9214B02F5C32202F520720B44BF
:103610009342C5D9A1F1B77302F5B71202F55872FA
:10362000A3F5585393421ED9194B02F5122202F505
:10363000F8620B4493428CBF4FF4C0514FF4E051F9
:10364000B0E74FF46051ADE74FF47051AAE74FF483
:103650005051A7E74FF44051A4E74FF43051A1E790
:103660004FF420519EE74FF400519BE7405327FF52
:10367000FF340C00401E1BFF3F420F007F4F120023
:1036800060B6E5FE5FE3160000D3CEFEC05BB3FE7E
:10369000E05459FE02460020936843F00103936012
:1036A000704700BF02460020936823F00103936037
:1036B000704700BF08B5C368012923F0C043C36049
:1036C0000BD041B9C36843F08043C3603220FCF79C
:1036D0009DFF002008BD012008BDC36843F00053D2
:1036E000C360F3E784B02DE9F04308AC84E80E0032
:1036F000129E0022C0F804210346C0F808210F469C
:10370000C0F80C2100F50065C0F81021C0F81421A4
:10371000C0F81821C0F81C21C0F82021C0F82421CD
:10372000C0F82821C0F82C21C0F83021C0F834217D
:10373000C0F83821C0F83C21002E40F09A806A6819
:1037400042F002026A60826B42F400128263826B72
:1037500022F400228263826B22F4802282630022A0
:10376000C3F8002E0D9AD3F80018C3F80018012AE8
:1037700000F08880D3F8002842F00302C3F8002844
:103780004FF484621A614B4A02E0013A00F08880EB
:10379000186910F02000F8D110221A61454A01E0A2
:1037A000013A7FD01969C906FAD4002129616961FB
:1037B000E961E7B18C4603F510624FF090484FF095
:1037C00000694FF67F3E0AE0C2F800C00131B942FD
:1037D000C2F810C0C2F808E002F120022CD0146830
:1037E000002CF1DA002962D0C2F80080EEE72A69E5
:1037F0000B9922F480722A6100246FF080429C6150
:103800005A6119B99A6942F010029A619C692A4A70
:103810000E9922439A6119B19A6942F008029A619D
:10382000012E05D19A6942F0804242F004029A6169
:10383000BDE8F04304B070470024A44603F53062AD
:103840004FF090484FF000694FF67F3E0AE0C2F813
:1038500000C001348C42C2F810C0C2F808E002F186
:103860002002C4D01768002FF1DAECB1C2F8008052
:10387000EFE7826B22F400128263826B42F4002233
:1038800082636CE70A9A22B9D3F80028C3F80028AB
:1038900076E7D3F8002842F00102C3F800286FE76A
:1038A000012079E7012080E7C2F80090D1E7C2F853
:1038B00000908BE7400D030000383C80890141F007
:1038C00020010161054A01E0013A05D0036913F0C6
:1038D0002003F9D11846704703207047400D0300BC
:1038E000D0F8083813F0060004D013F0020F14BF0C
:1038F00002200F20704700BF30B40A784D7802F0E4
:103900000F040123012D03FA04F300EB421400F528
:10391000006019D0C26942EA0343C361D4F8003B96
:103920001B040ED48A68C878D4F8001BC2F30A02BC
:1039300042F0805343F4004343EA80430B43C4F80E
:10394000003B002030BC7047C5692B43C361D4F8ED
:1039500000391804F5D48B68C878D4F80019C3F37B
:103960000A0343F0805343F4004343EA804343EAAD
:1039700082520A43C4F80029002030BC704700BFBF
:1039800010B44C780B78012C00EB43122AD0D2F8FB
:10399000001B002919DB03F00F014FF48033D0F82E
:1039A0003C488B40DB431C40C0F83C48D0F81C48E6
:1039B00021492340C0F81C38D2F8003B5DF8044B85
:1039C00019400020C2F8001B7047D2F8001B41F0DC
:1039D0000061C2F8001BD2F8001B41F08041C2F820
:1039E000001BD8E7D2F8001900290BDAD2F8001929
:1039F00041F00061C2F80019D2F8001941F080418D
:103A0000C2F8001903F00F010123D0F83C488B40A5
:103A1000DB431C40C0F83C48D0F81C480749234011
:103A2000C0F81C38D2F800395DF8044B194000206A
:103A3000C2F80019704700BF0078F3EF007833EC4C
:103A40002DE9F04791F801C00E784B69CF78BCF1B1
:103A5000010F00EB46154ED005F530642669D1F80C
:103A600008C0F60CF6042661266926F0FF5626F4F7
:103A7000C01626617BB3DFF8E8E1D4F8108003EBD1
:103A80000C06013EB6FBFCF60EEAC64343EA080309
:103A90002361B6B20CFB06F32669C3F3120333436A
:103AA000012A236122D0012F0CD1D0F8083813F459
:103AB000807FD5F8003B0CBF43F0005343F08053A8
:103AC000C5F8003BD5F8003B43F00443C5F8003B84
:103AD0000020BDE8F0872669CCF31203334323614D
:103AE0002369012A43F400232361DCD1CB68002B36
:103AF000D9D06361D7E705F51064F3B3D4F810802B
:103B0000D1F808A0DFF858E14FEAD8484FEAC84892
:103B1000C4F81080D4F8108028F0FF5828F4C0189A
:103B2000C4F81080D4F810900AEB030808F1FF38AD
:103B3000B8FBFAF80EEAC84E4EEA090EC4F810E0D7
:103B4000D4F81080C3F3120E4EEA080E012FC4F809
:103B500010E054D0012A60D0D5F8003943F0044376
:103B6000C5F80039D0F8343806F00F060CFA06FC18
:103B70004CEA0303C0F83438AAE7D4F810C02CF09C
:103B8000FF5C2CF4C01CC4F810C0D4F810C04CF476
:103B9000002CC4F810C0D4F810C04FEADC4C4FEA37
:103BA000CC4C012AC4F810C037D0D5F80049012FF9
:103BB00044F00444C5F800498AD1D0F8084814F408
:103BC000807FD5F800490CBF44F0005444F0805485
:103BD000C5F80049002A7FF47BAF9BB203339A08F3
:103BE0003FF476AFCB6800EB063003EB820200F5C2
:103BF000805053F8041B01609342FAD168E7D4F86F
:103C000010C02CF0C04CC4F810C0D4F810C0012A69
:103C10004CF0005CC4F810C01AD10B6903B16361A9
:103C2000012F0CD1D0F8083813F4807FD5F8003973
:103C30000CBF43F0005343F08053C5F80039D5F86A
:103C4000003943F00443C5F800390020BDE8F0878F
:103C5000D5F8004944F00444C5F80049ADE700BF79
:103C60000000F81F4B78F0B40D784E69012B00EB83
:103C7000451427D004F530631D698868ED0CED0408
:103C80001D611D6925F0FF5525F4C0151D6106B1A4
:103C900048611D6945F400251D611D69C0F31200CE
:103CA0002843012A186108D0D4F8003B43F00443AC
:103CB000C4F8003B0020F0BC7047CA68002AF3D06B
:103CC0005A61F1E704F510639EB31F69D1F808C08B
:103CD000FF0CFF041F611F6927F0FF5727F4C0176F
:103CE0001F611F69B44547F4002738BFC1F814C0ED
:103CF0001F6138BF6646D3F810C0C6F3120747EA03
:103D00000C07012A1F612DD0D4F8003943F0044379
:103D1000C4F80039002ECDD0D0F8342805F00F05B6
:103D2000012303FA05F51543C0F834580020F0BC10
:103D30007047186920F0FF5020F4C010186118690E
:103D400040F4002018611869C00CC004012A1861F1
:103D500008D0D4F8003943F00443C4F800390020F7
:103D6000F0BC70470A69002AF3D05A61F1E700BF3E
:103D700010B49DF804406CB903339B080AD000EBE3
:103D8000023000F5805001EB830351F8042B0260F0
:103D90008B42FAD100205DF8044B70470332920841
:103DA0000DD010B401EB820200F580540846236860
:103DB00040F8043B8242FAD15DF8044B7047084654
:103DC000704700BF4A780B78012A00EB431012D0ED
:103DD000D0F8002B002A06DB2BB1D0F8003B23F0F3
:103DE0008043C0F8003BD0F8003B43F40013C0F818
:103DF000003B00207047D0F80029002A06DB2BB1D9
:103E0000D0F8003923F08043C0F80039D0F80039E9
:103E100043F40013C0F8003900207047CB780A78CB
:103E20004978023B0129DBB200EB421011D0D0F8F7
:103E3000002B012B22F40012C0F8002B01D9002026
:103E40007047D0F8003B43F08053C0F8003B00209F
:103E50007047D0F80029012B22F40012C0F8002985
:103E6000EDD8D0F8003943F08053C0F80039002075
:103E7000704700BFD0F8003823F4FE63C0F8003864
:103E8000D0F80038090101F4FE611943C0F80018A8
:103E900000207047D0F8003E23F00303C0F8003E36
:103EA000D0F8043823F00203C0F80438002070472B
:103EB000D0F8003E23F00303C0F8003ED0F80438E9
:103EC00043F00203C0F8043800207047426980695B
:103ED00010407047D0F8183800F50060C0691840ED
:103EE000000C7047D0F8183800F50060C069184021
:103EF00080B2704700EB411100F50060D1F8082B4B
:103F000040691040704700BF10B4D0F81048D0F896
:103F1000343800EB411001F00F0100F51060CB4088
:103F2000DB01DBB28068234318405DF8044B704727
:103F3000406900F001007047D0F8003923F4FF63B6
:103F400023F00703C0F80039D0F8043843F4807335
:103F5000C0F804380020704730B4124C056CA542FC
:103F600000F5306303D9D0F8004B002C16DB002499
:103F70001C611C6944F400241C611C6944F0180491
:103F80001C611C69012944F0C0441C6106D15A61BE
:103F9000D0F8003B43F08023C0F8003B002030BC49
:103FA000704700BF0A30544FD0F8C03283B110B50B
:103FB000D0F8BC4294F80002FF2807D09B6894F820
:103FC000012221469847FF2384F80032002010BDCB
:103FD0000020704743230380004870470C000020F6
:103FE0004323038000487047500000204323038090
:103FF00000487047940000200A230380004870475F
:10400000D800002038B5D0F8BC4274B1054601F0A4
:10401000EBFDD5F8C032C4F80C02DB68D4F804021A
:1040200004F503719847002038BD032038BD00BF58
:10403000F8B5D0F8BC72A7B101EB810500EB85059E
:104040000346AE690A4676B9D3F8C032D7F80802FB
:104050001B690024C7F8144207F5047198472046ED
:10406000F8BD0320F8BDD0F8C442C1EBC10C04EB8D
:104070008C04D4F844C0B6FBFCF40CFB1464002C94
:10408000E2D1AC612346224601F092FD2046F8BD04
:104090002DE9F0410B78D0F8BC8282B0002713F0F4
:1040A00060020C4606468DF80570ADF806701CD00F
:1040B000202A12D1CD8891F801C0002D47D1D0F827
:1040C000C0322A4660469B689847284602B0BDE841
:1040D000F08190F89C32032B49D03046214600F005
:1040E00001FD032002B0BDE8F0814B780B2BF4D822
:1040F00001A252F823F000BFD3400008314100086C
:10410000DB400008DB400008DB400008DB40000823
:10411000DB400008DB400008DB400008DB40000813
:10412000394100082941000890F89C32032BD4D172
:10413000002002B0BDE8F08190F89C32032BCCD176
:1041400001220DF1050100F0FFFC0020CAE71B066B
:1041500014D5D0F8C0322A4660469B68414698473D
:10416000E2884146304600F0EFFC3846BAE70222CA
:104170000DF1060100F0E8FC0020B3E788F800C26A
:1041800088F801522A46414600F0F4FC3846A9E777
:1041900038B504460025812101F0BEFC01212587A8
:1041A000204601F0B9FCA4F878512046822101F0A4
:1041B000B3FCD4F8BC32E5644BB1D4F8C0325B68D0
:1041C0009847D4F8BC0204F055FDC4F8BC52002056
:1041D00038BD00BF2DE9F04104464FF4077004F0EC
:1041E00041FD054600284BD0237CC4F8BC029BB39C
:1041F0004023812101260222204601F07DFC2687F2
:10420000314640230222204601F076FC102303228F
:104210008221A4F87861A4F84E302046082301F0EA
:104220006BFCD4F8C03201271B68A4F84C70984787
:1042300094F81080D5F804220026C5F81462394697
:10424000C5F818622046B8F1000F12D0402301F0E3
:10425000BDFC3046BDE8F0814FF40073812101269A
:104260000222204601F048FC268731464FF40073B5
:10427000C8E74FF4007301F0A9FC4046BDE8F081A7
:10428000C4F8BC020220BDE8F08100BF19B1C0F83B
:10429000C012002070470320704700BFD0F8BC3226
:1042A0000020C3F80812C3F810227047D0F8BC32BF
:1042B0000020C3F804127047D0F8BC2292B138B580
:1042C000D2F814420CB1012038BDD2F810320125C9
:1042D000C2F814528121D2F80822C36201F068FCAE
:1042E000204638BD03207047D0F8BC228AB110B5F3
:1042F000047CD2F804222CB14023012101F066FC99
:10430000002010BD4FF40073012101F05FFC204636
:1043100010BD0320704700BFA0B1D0F8B83213B170
:104320000023C0F8B832D0F8CC3213B10023C0F863
:10433000CC3209B1C0F8B4120123027080F89C326B
:1043400001F09ABB0320704730B583B00024ADF86C
:10435000064059B10546C0F8B8128B6A0DF1060047
:104360009847C5F8CC02204603B030BD0324FAE7D5
:1043700001F0B4BBD0F8B8320BB11B68184703206A
:10438000704700BF08B5D0F8B8320BB15B689847EA
:10439000002008BD38B5044600F2AA25284600F0E2
:1043A0008DFB94F8AA12B4F8B032C4F89832012206
:1043B00001F01F039342C4F8942215D00ED3022BB0
:1043C00005D129462046BDE8384000F0DDBA204638
:1043D00001F08001BDE8384001F0ACBB2946204621
:1043E000BDE8384000F000B929462046BDE8384015
:1043F00000F09CBA70B5044631B90D46D0F894125D
:1044000003290CD0002070BDD0F8B8229269DAB12F
:1044100090F89C32032B17D1BDE87040104711462D
:10442000D0F85C31D0F8602193420FD8D0F8B83280
:104430001B6923B190F89C22032A00D1984720469B
:1044400000F0B0FB0020DEE7032070BD9B1A9A420B
:10445000C0F85C3128BF1A4600F09CFB284670BDAE
:1044600070B5044682B061B91546D0F89422022A8C
:1044700017D094F8A032012B4FF000000DD002B0FD
:1044800070BDD0F8B8325B6943B390F89C22032A20
:1044900024D102B0BDE87040184784F8A00202B0F1
:1044A00070BDD0E90726B2421BD827D0D4F8B83265
:1044B000DB682BB194F89C22032A01D1204698474F
:1044C0008021204601F036FB204600F077FB94F86F
:1044D000A032012B4FF00000D1D1DEE7032002B063
:1044E00070BD921B0191C261294600F03BFB019B0C
:1044F00020461A46194601F069FBBAE78569AA42C7
:10450000D4D8D0F898229542D0D20A46019100F032
:1045100029FB019BC4F898321A461946204601F03F
:1045200055FBA6E7D0F8BC320021012270B5044645
:1045300080F89C22C0F894124160C0F8A4121BB10C
:10454000D0F8B8325B689847002240231D461146D8
:104550000126204601F0D0FAA4F86461C4F8605145
:104560002B4600228021204601F0C6FAA68425624F
:10457000002070BD01740020704700BF90F89C229D
:1045800080F89D22042380F89C320020704700BFF1
:1045900090F89C32042B04BF90F89D3280F89C3236
:1045A0000020704790F89C22032A01D00020704719
:1045B00008B5D0F8B832DB6903B19847002008BDD0
:1045C000002070470020704700207047D0F8B822C4
:1045D000012180F89C122AB108B5526801799047F0
:1045E000002008BD0020704770B50B7803F0600311
:1045F000202B82B00D46044628D0402B26D05BB13C
:104600008021204601F096FA2046002101F092FA1E
:104610000025284602B070BD4B78092BF0D801A2C6
:1046200052F823F0C3460008F3460008014600088C
:1046300011470008014600081D4700085F470008B1
:10464000014600087B47000861460008D4F8B832EC
:1046500029469B68204698470546284602B070BD0B
:104660008D78B14E012D357000F2128190F89C3298
:10467000022B00F01681032B40F02481002D00F066
:104680003C814168012900F0FF80C9B2FFF77AFE42
:10469000317861602046FFF76DFE0546002800F086
:1046A000F3808021204601F045FA0021204601F0E8
:1046B00041FA21792046FFF765FE022384F89C32F7
:1046C000A7E790F89C32013B022B4FF0030297D8EA
:1046D000CB88022B94D1D0F8A4320121C16003B160
:1046E000C260022204F10C01204600F02DFA0025E0
:1046F0008FE790F89C32013B022B81D84B88012B2D
:104700004FF0000585D1C0F8A45200F04BFA80E7C5
:104710004B88012B00F0B68000257AE78B88002BB0
:104720007FF46EAFCE88002E7FF46AAF4D887F2D68
:104730003FF666AF90F89C32032B3FF461AFE9B2CD
:1047400080F89E1201F026FA204600F02BFA002D88
:1047500000F0E5800223354684F89C3259E74A8808
:10476000130A0021013BADF80610062B5FD8DFE8E5
:1047700003F0523D355E5E491800CA88012A7FF475
:104780003FAF90F89C32002B3FF43AAF022B40F23F
:10479000A680032B7FF434AF011D00F0D5F900256E
:1047A00037E7037C002B42D1D0F8B8320DF1060078
:1047B0001B6B984707234370EB88002B64D0BDF830
:1047C0000620002A33D0934228BF134601461A46DA
:1047D0002046ADF8063000F0B7F99DE7D2B2052AC1
:1047E00025D8DFE802F02049433D372D027CD0F880
:1047F000B832002A7AD19B6A0DF10600984702234D
:104800004370D9E7037C93B9D0F8B8320DF10600B4
:104810005B6B9847D0E7D0F8B432007C1B680DF191
:1048200006019847C8E7D0F8B4325B686BB98021BD
:10483000204601F07FF92046002101F07BF96BE76B
:10484000D0F8B4329B69002BF1D00DF10601207C29
:104850009847B1E7D0F8B4325B69002BF5D1E6E7B1
:10486000D0F8B4321B69002BEFD1E0E7D0F8B432B6
:10487000DB68002BE9D1DAE7D0F8B4329B68002B73
:10488000E3D1D4E7C0F8A432204600F08BF943E727
:10489000802101F04FF92046002101F04BF903255A
:1048A000B7E6002DF0D001214160FFF763FD05461A
:1048B00070B38021204601F03DF92046002101F02F
:1048C00039F9A6E6802101F035F90021204601F0F2
:1048D00031F931782046FFF755FD032599E6014669
:1048E000002541F8085F00F02FF992E6DB6A0DF130
:1048F00006009847022343705EE70223456080F874
:104900009C322946FFF73EFD204600F04BF980E639
:10491000204600F047F9032384F89C3279E601230E
:1049200084F89C3275E600BF7407002070B50B78E0
:1049300003F06003202B0D4604460DD0402B0BD016
:1049400053B18021204601F0F5F82046002101F006
:10495000F1F80026304670BD94F89C32013B022BE2
:10496000EFD82B79012BECD8D4F8B83229469B68C4
:1049700020469847EB880646002BEBD10028E9D16A
:10498000204600F00FF9E5E770B50B7803F06003FF
:10499000202B054627D0402B25D00C464BB180213B
:1049A000284601F0C7F82846002101F0C3F800208E
:1049B00070BD4B788A88012BD1B242D01AD3032B19
:1049C000EDD190F89C32022B52D0032BE7D16388B3
:1049D0002BB94A0603D0E3880BB901F0ABF828469F
:1049E00000F0E0F8E3E7D5F8B83228469B68BDE868
:1049F0007040184790F89C32022B42D0032BCED146
:104A000001F00F0303EB8303120600EB830347D48B
:104A1000B3F86431002BC2D001F07F03142404FBEF
:104A2000030404F5AA742BB1284601F09FF800286E
:104A300042D00123236021462846022200F084F858
:104A4000B5E790F89C32022B12D0032BA7D16388D4
:104A5000002BACD14E0601D001F07AF8284600F0C8
:104A6000A1F8D5F8B83221469B68284698479EE7BA
:104A70004B0694D001F05EF82846802101F05AF8E8
:104A800095E748068BD111064CBF05F1140105F5D9
:104A9000AA71002328460B60022200F055F886E731
:104AA0009B8C002B3FF47BAF01F07F035C1C04EB7D
:104AB000840400EB8404B6E72060BCE70B78037045
:104AC0004B784370CA788B7843EA022343804A7953
:104AD0000B7943EA02238380CA798B7943EA022364
:104AE000C380704710B58021044601F023F82046AA
:104AF0000021BDE8104001F01DB800BF00B30378ED
:104B000030B4F3B10446002314F8015F0133DBB283
:104B1000002DF9D15B000233032413800B704C701D
:104B200004785CB1022300255A1CD2B2CC548D54B7
:104B300010F8014F0233DBB2002CF5D130BC7047C6
:104B400070470223E8E700BF38B5134602250A463E
:104B5000C0E90633C0F89452002101F029F8002082
:104B600038BD00BF08B513460A46002101F020F801
:104B7000002008BD38B5134603250A46C0F8583151
:104B8000C0F85C31C0F89452002101F01FF80020F9
:104B900038BD00BF08B513460A46002101F016F8DB
:104BA000002008BD08B504220023C0F8942219464D
:104BB0001A4600F0FDFF002008BD00BF08B5052221
:104BC0000023C0F8942219461A4600F0FFFF002087
:104BD00008BD00BF101E19DDF0B40D4DD5F80072F0
:104BE000D5F804420E183B19B4F5007F01F101011C
:104BF000C3F3080306D211F801CC05F803C0013451
:104C0000C5F80442B142EED1F0BC7047704700BF16
:104C1000780700200B2812D8094930B401EB800432
:104C2000D1F80852D4F80C22012303FA00F02843EB
:104C30001A44C4F80C22C1F8080230BC704770470F
:104C40007807002010B5714CD4F83C22D4F8081233
:104C50000132C4F83C22E1B9D4F8083299072ED4C5
:104C60005A073BD4180748D4D90655D49A0662D4BB
:104C700058066FD419067CD4DA0500F18A809805AD
:104C800000F19780590500F1A4801A0500F1B18068
:104C900010BD5F4804F0A6F8D4F80832D807DBD579
:104CA0005C49D4F80C2209685B4823F00103C4F87E
:104CB000083204F097F8D4F808329907D0D555494E
:104CC000D4F810224968544823F00203C4F808328B
:104CD00004F088F8D4F808325A07C3D54D49D4F8FF
:104CE000142289684C4823F00403C4F8083204F005
:104CF00079F8D4F808321807B6D54649D4F81822FE
:104D0000C968454823F00803C4F8083204F06AF87B
:104D1000D4F80832D906A9D53E49D4F81C2209692D
:104D20003D4823F01003C4F8083204F05BF8D4F8CF
:104D300008329A069CD53749D4F82022496936486A
:104D400023F02003C4F8083204F04CF8D4F80832F9
:104D500058068FD52F49D4F8242289692E4823F08C
:104D60004003C4F8083204F03DF8D4F808321906BC
:104D700082D52849D4F82822C969274823F080031E
:104D8000C4F8083204F02EF8D4F80832DA057FF5BA
:104D900076AF2049D4F82C22096A1F4823F4807387
:104DA000C4F8083204F01EF8D4F8083298057FF5EC
:104DB00069AF1849D4F83022496A174823F40073C0
:104DC000C4F8083204F00EF8D4F8083259057FF51B
:104DD0005CAF1049D4F83422896A0F4823F4806309
:104DE000C4F8083203F0FEFFD4F808321A057FF544
:104DF0004FAF0849D4F83822C96A074823F4006342
:104E0000C4F80832BDE8104003F0ECBF780700207A
:104E1000609F00081C0100208C9F00084FF0604339
:104E2000D3F8802ED10719D5D3F8002ED20715D587
:104E30001A689AB10A4AD2F8041279B110B4D2F8B9
:104E40000042601C0139C0F30800145DC2F804126E
:104E5000C2F800021C705DF8044B7047704700BF39
:104E600078070020034B0022C3F80022C3F8042275
:104E7000704700BF7807002030B5002395B0CDE91A
:104E80000A33CDE90433CDE90633234901930C936A
:104E90000393086C214A40F080500864096C01F0CB
:104EA0008051019101990293136843F48043136088
:104EB000136803F48043029309204FF480310122E8
:104EC00002234FF48005029C0890082409910D925A
:104ED0004821032208A80E931293CDE90F54119193
:104EE0001392FDF765FC98B9022200230F254FF4B9
:104EF000805403A81146CDE903520593CDE906433A
:104F0000FDF764FE10B1064803F0E0FF15B030BDB8
:104F1000034803F0DBFFE7E7003802400070004081
:104F2000C4A0000800B500248BB0FBF743FBFFF7DB
:104F3000A3FFCDE90544CDE90744B74B009409949C
:104F40001A6BB64842F004021A631A6B02F00402AC
:104F50000092009A01941A6B42F080021A631A6B55
:104F600002F080020192019A02941A6B42F001024F
:104F70001A631A6B02F001020292029A03941A6BEE
:104F800042F002021A631A6B02F002020392039AC1
:104F900004941A6B42F008021A631B6B03F00803B7
:104FA000049301220221049BFBF790FD22464FF25D
:104FB00020119A48FBF78AFD22464FF490519848F9
:104FC000FBF784FD22464FF407419648FBF77EFD30
:104FD000224604219448FBF779FD012542F20F0394
:104FE00005A98F480795CDE90534FBF7BBFB0323E3
:104FF00005A98C480593CDE90645FBF7B3FB3023A3
:1050000005A9874805931126CDE90644FBF7AAFBBD
:1050100005A982480596CDE90644FBF7A3FB46F2B5
:10502000221305A97D480593CDE906540894FBF7A2
:1050300099FB4FF4017305A978480593CDE906451E
:10504000FBF790FB4FF48052022305A973480592A9
:105050000893CDE90654FBF785FB4FF4004305A9FF
:105060006E480593CDE906640894FBF77BFB4FF48B
:10507000905305A96A480593CDE906540894FBF7B7
:1050800071FB4FF4074305A966480593CDE9065423
:105090000894FBF767FB042305A963480593CDE952
:1050A00006540894FBF75EFB604B61495C6040F678
:1050B000FF72184619609A60FCF724FE002840F041
:1050C000FD805C4B5C4A1A604FF482704FF4802282
:1050D00008240A2158609A6118460022DC61D962CE
:1050E000C3E90222C3E90422C3E908229A62FDF758
:1050F00031FE002840F00A81504B514A1A604FF4AB
:1051000096424FF400540C215A6018460022DC608D
:1051100059619A601A61C3E90622FDF7EBFF002886
:1051200040F0F080474B484A1A604FF4E1340022C7
:105130000C2118465C605961C3E902221A61C3E977
:105140000622FDF7D7FF002840F0D8803F4B404AA9
:105150001A604FF416504FF480524FF480640C21C3
:1051600058609A6018460022C3E90441DA60C3E936
:105170000622FDF7BFFF002840F0BC80354B364AC1
:105180001A604FF416504FF480524FF480640C2193
:1051900058609A6018460022C3E90441DA60C3E906
:1051A0000622FDF7A7FF002840F0A0802B4B2C4AD9
:1051B0001A6041F61F42092480215A6018460022D5
:1051C000DC6099619A60CDE90522FDF703FE0028B5
:1051D00040F08880002305A92048CDE90533FDF77C
:1051E0003FFF00287AD100F017FB1E4B1E4A1F49D3
:1051F0001A607A204FF4804201245960D8607C21E3
:105200001A6118460022C3E905419A60C3E90722E2
:10521000FBF768FC2CE000BF0038024000040240AD
:105220000008024000000240000C0240CC100020A8
:1052300000300040EC110020003001402C11002013
:105240000010014044120020004400408C10002057
:1052500000480040AC110020001401406C110020F7
:1052600000100040D810002000580040A086010027
:1052700080BB284B284A1A6040F2CF2209248021A3
:105280005A6018460022DC6099619A60CDE90522D7
:10529000FDF7A0FDD0B9002305A91E48CDE90533CF
:1052A000FDF7DEFE70B901F009FB1C48FDF716FEA4
:1052B0001848FDF713FE01F015F8FCE7184803F055
:1052C00005FEFEE6164803F001FEECE7144803F085
:1052D000FDFDE0E7124803F0F9FDCAE7104803F0CE
:1052E000F5FD80E70E4803F0F1FD73E70C4803F08D
:1052F000EDFD5BE70A4803F0E9FD3FE7084803F0EE
:10530000E5FD23E7064803F0E1FD0BE7044803F061
:10531000DDFDF1E684120020001400406C11002035
:10532000C4A00008014803F0D1BD00BFC4A000081C
:1053300082B00C4B002100915A6C42F480425A64B6
:105340005A6C02F480420092009A01911A6C42F069
:1053500080521A641B6C03F080530193019B02B0CE
:10536000704700BF0038024070B50268204B88B01B
:1053700000249A42CDE90344CDE90544079401D0C5
:1053800008B070BD1B4D01942B6B1B4843F002030A
:105390002B632B6B03F0020301934FF440630393E1
:1053A0001222012303A90492059303220423CDE9C9
:1053B0000623019EFBF7D6F902942B6C43F480037D
:1053C0002B642B6C03F48003224621460293212098
:1053D000029BFBF73FF92120FBF772F92246214699
:1053E0002220FBF737F92220FBF76AF908B070BDDD
:1053F00000580040003802400004024008B502682E
:105400000D4B9A4200D008BD0C4A0D48136C23F492
:10541000800313644FF48061FBF7A8FA4FF4006136
:105420000748FBF7A3FA2120FBF758F92220BDE833
:105430000840FBF753B900BF005800400038024055
:105440000004024070B50168174A88B000239142F9
:10545000CDE90333CDE90533079301D008B070BD22
:1054600002F584320193516C104841F4805151642B
:10547000516C01F48051019101990293136B43F037
:1054800001031363136B03F001030293032205234B
:1054900003A9F0250224029ECDE90354CDE9062399
:1054A000FBF760F908B070BD003001400000024019
:1054B00000B503681A4A934283B01BD0194A93423D
:1054C00002D003B05DF804FB0022174B0192196C67
:1054D00041F0200119641B6C03F020030193114675
:1054E0003720019BFBF7B6F8372003B05DF804EBDB
:1054F000FBF7E6B800220C4B0092196C41F010014A
:1055000019641B6C03F01003009311463620009BB6
:10551000FBF7A0F8362003B05DF804EBFBF7D0B83A
:1055200000100040001400400038024070B50368CD
:10553000614A8EB000249342CDE90944CDE90B4481
:105540000D9436D05D4A93425ED05D4A934200F09E
:1055500086805C4A934201D00EB070BD5A4B0794CE
:105560005A6C5A4842F020025A645A6C02F02002E7
:105570000792079A08941A6B42F004021A631B6B95
:1055800003F004030893C02309A903220993022509
:105590000823CDE90C23089E0A95FBF7E3F8224681
:1055A00021464720FBF756F84720FBF789F80EB055
:1055B00070BD454B01945A6C454842F010025A6444
:1055C0005A6C02F010020192019A02941A6B42F096
:1055D00002021A631B6B03F002030293C02309A9A2
:1055E0000322099302250723CDE90C23029E0A9585
:1055F000FBF7B8F8224621462520FBF72BF825209B
:10560000FBF75EF80EB070BD2F4B03941A6C314857
:1056100042F400321A641A6C02F400320392039AC4
:1056200004941A6B42F001021A631B6B03F001032E
:1056300004930C2309A90322099302250723CDE92A
:105640000C23049E0A95FBF78DF82246214626205E
:10565000FBF700F82620FBF733F80EB070BD1A4BAD
:1056600005941A6C194842F480221A641A6C02F4E8
:1056700080220592059A06941A6B42F004021A637E
:105680001B6B03F0040306934FF4406309A9032244
:10569000099302250723CDE90C23069E0A95FBF703
:1056A00061F8224621462720FAF7D4FF2720FBF78E
:1056B00007F80EB070BD00BF00100140004400406C
:1056C0000048004000140140003802400008024039
:1056D0000004024000000240704700BFFEE700BF28
:1056E000FEE700BFFEE700BFFEE700BF704700BF58
:1056F000704700BF704700BFFAF776BF0148FBF75D
:1057000025BC00BFD81000200148FCF785B900BFB8
:10571000D81000200148FDF711BE00BF2C11002059
:105720000148FDF70BBE00BF441200200148FDF701
:1057300005BE00BF8C1000200148FDF7E7BB00BF8D
:105740006C1100200148FDF7E1BB00BF841200206E
:105750000148FCF7AFBB00BF941700200148FDF7DC
:10576000EDBD00BFAC1100200120704708B503F06B
:105770004FFA162303604FF0FF3008BD08B503F061
:1057800047FA16230360FEE770B5161E07DD0C46C8
:105790008D19AFF3008004F8010BA542F9D1304612
:1057A00070BD00BF0C4A08B5136833B11844694690
:1057B000884208D81060184608BD084B136018448A
:1057C00069468842F6D903F023FA0C2303604FF0B0
:1057D000FF33184608BD00BFB8090020A01D0020F7
:1057E0004FF0FF30704700BF4FF400534B60002074
:1057F000704700BF0120704700207047054BD3F869
:1058000088204FF0006142F47002C3F8882099604C
:10581000704700BF00ED00E008B5002210491148B4
:10582000FEF77AFDC0B910490E48FEF78DFD80B92C
:105830000E490C48FEF72AFD40B90A48FEF798FDCC
:1058400000B908BDBDE80840FFF76CBDFFF76AFD71
:10585000F3E7FFF767FDEBE7FFF764FDE3E700BF62
:1058600098010020C4120020E40000205001002014
:105870000020704708B500F087FB002008BD00BF7E
:1058800070B5084D04460E4628462146FEF70EFD2B
:105890002846FEF729FD2046B1B200F09FFB00200C
:1058A00070BD00BFC412002010B5064C064900228E
:1058B0002046FEF7F3FC20460449FEF7F7FC0020E3
:1058C00010BD00BFC41200209416002094150020C3
:1058D00020280AD0212806D10A4B18689A889B797B
:1058E00008608A808B7100207047064B08688A79AF
:1058F00010B48C8818609C809A7100205DF8044B6D
:10590000704700BFC009002010B5094CD4F8BC3264
:10591000D3F814320BB1012010BD0A4601462046CF
:10592000FEF7BCFC2046BDE81040FEF7C5BC00BF3A
:10593000C412002070B5036888B00024B3F1A04FF2
:10594000CDE90344CDE90544079401D008B070BD0A
:10595000174D01942B6B174843F001032B632B6BFE
:1059600003F0010301934FF4C052022303A90392F1
:10597000049303220A23CDE90623019EFAF7F2FEDF
:105980006B6B43F080036B6302946B6C43F4804356
:105990006B646B6C03F480430293224621464320E0
:1059A000029BFAF757FE4320FAF78AFE08B070BD53
:1059B000003802400000024000F57171D0F8040484
:1059C000FEF7E8BCC1EBC10300EB8303D0F804048D
:1059D000D3F80822FEF70EBDC1EBC10300EB830331
:1059E000D0F804049A6CFEF73BBD00BFD0F8040465
:1059F000FEF7D8BDC16810B5044621B102290CD00C
:105A0000FFF790FC0121D4F80404FEF7B3FDD4F8AD
:105A10000404BDE81040FEF785BD0121F3E700BF97
:105A200010B50446D0F80404FEF7A8FD2268D2F8A9
:105A3000003E43F00103C2F8003E236A23B1034A4B
:105A4000136943F00603136110BD00BF00ED00E0D1
:105A5000D0F80404FEF79CBDD0F80404FEF7B2BDF4
:105A6000D0F80404FEF7ACBDD0F80404FEF7ACBDDA
:105A7000D0F80404FEF7AABD02780AB100207047EE
:105A800038B5154B0221C3F804044FF0A045042497
:105A9000C0F8C43218461A61C3E907225A62C3E942
:105AA0000B22C3E90054D9609961FCF755F978B924
:105AB00080210948FCF776FE402200210648FCF7C9
:105AC0004DFE802201210448FCF748FE002038BD2D
:105AD000FFF728FCECE700BF9417002008B5D0F8CA
